{
  "_format": "hh-sol-artifact-1",
  "contractName": "LazyNFT",
  "sourceName": "src/backend/contracts/LazyNFT.sol",
  "abi": [
    {
      "inputs": [
        {
          "internalType": "address payable",
          "name": "minter",
          "type": "address"
        }
      ],
      "stateMutability": "nonpayable",
      "type": "constructor"
    },
    {
      "anonymous": false,
      "inputs": [
        {
          "indexed": true,
          "internalType": "address",
          "name": "owner",
          "type": "address"
        },
        {
          "indexed": true,
          "internalType": "address",
          "name": "approved",
          "type": "address"
        },
        {
          "indexed": true,
          "internalType": "uint256",
          "name": "tokenId",
          "type": "uint256"
        }
      ],
      "name": "Approval",
      "type": "event"
    },
    {
      "anonymous": false,
      "inputs": [
        {
          "indexed": true,
          "internalType": "address",
          "name": "owner",
          "type": "address"
        },
        {
          "indexed": true,
          "internalType": "address",
          "name": "operator",
          "type": "address"
        },
        {
          "indexed": false,
          "internalType": "bool",
          "name": "approved",
          "type": "bool"
        }
      ],
      "name": "ApprovalForAll",
      "type": "event"
    },
    {
      "anonymous": false,
      "inputs": [
        {
          "indexed": true,
          "internalType": "bytes32",
          "name": "role",
          "type": "bytes32"
        },
        {
          "indexed": true,
          "internalType": "bytes32",
          "name": "previousAdminRole",
          "type": "bytes32"
        },
        {
          "indexed": true,
          "internalType": "bytes32",
          "name": "newAdminRole",
          "type": "bytes32"
        }
      ],
      "name": "RoleAdminChanged",
      "type": "event"
    },
    {
      "anonymous": false,
      "inputs": [
        {
          "indexed": true,
          "internalType": "bytes32",
          "name": "role",
          "type": "bytes32"
        },
        {
          "indexed": true,
          "internalType": "address",
          "name": "account",
          "type": "address"
        },
        {
          "indexed": true,
          "internalType": "address",
          "name": "sender",
          "type": "address"
        }
      ],
      "name": "RoleGranted",
      "type": "event"
    },
    {
      "anonymous": false,
      "inputs": [
        {
          "indexed": true,
          "internalType": "bytes32",
          "name": "role",
          "type": "bytes32"
        },
        {
          "indexed": true,
          "internalType": "address",
          "name": "account",
          "type": "address"
        },
        {
          "indexed": true,
          "internalType": "address",
          "name": "sender",
          "type": "address"
        }
      ],
      "name": "RoleRevoked",
      "type": "event"
    },
    {
      "anonymous": false,
      "inputs": [
        {
          "indexed": true,
          "internalType": "address",
          "name": "from",
          "type": "address"
        },
        {
          "indexed": true,
          "internalType": "address",
          "name": "to",
          "type": "address"
        },
        {
          "indexed": true,
          "internalType": "uint256",
          "name": "tokenId",
          "type": "uint256"
        }
      ],
      "name": "Transfer",
      "type": "event"
    },
    {
      "inputs": [],
      "name": "DEFAULT_ADMIN_ROLE",
      "outputs": [
        {
          "internalType": "bytes32",
          "name": "",
          "type": "bytes32"
        }
      ],
      "stateMutability": "view",
      "type": "function"
    },
    {
      "inputs": [],
      "name": "MINTER_ROLE",
      "outputs": [
        {
          "internalType": "bytes32",
          "name": "",
          "type": "bytes32"
        }
      ],
      "stateMutability": "view",
      "type": "function"
    },
    {
      "inputs": [
        {
          "internalType": "address",
          "name": "to",
          "type": "address"
        },
        {
          "internalType": "uint256",
          "name": "tokenId",
          "type": "uint256"
        }
      ],
      "name": "approve",
      "outputs": [],
      "stateMutability": "nonpayable",
      "type": "function"
    },
    {
      "inputs": [],
      "name": "availableToWithdraw",
      "outputs": [
        {
          "internalType": "uint256",
          "name": "",
          "type": "uint256"
        }
      ],
      "stateMutability": "view",
      "type": "function"
    },
    {
      "inputs": [
        {
          "internalType": "address",
          "name": "owner",
          "type": "address"
        }
      ],
      "name": "balanceOf",
      "outputs": [
        {
          "internalType": "uint256",
          "name": "",
          "type": "uint256"
        }
      ],
      "stateMutability": "view",
      "type": "function"
    },
    {
      "inputs": [
        {
          "internalType": "uint256",
          "name": "tokenId",
          "type": "uint256"
        }
      ],
      "name": "getApproved",
      "outputs": [
        {
          "internalType": "address",
          "name": "",
          "type": "address"
        }
      ],
      "stateMutability": "view",
      "type": "function"
    },
    {
      "inputs": [],
      "name": "getChainID",
      "outputs": [
        {
          "internalType": "uint256",
          "name": "",
          "type": "uint256"
        }
      ],
      "stateMutability": "view",
      "type": "function"
    },
    {
      "inputs": [
        {
          "internalType": "bytes32",
          "name": "role",
          "type": "bytes32"
        }
      ],
      "name": "getRoleAdmin",
      "outputs": [
        {
          "internalType": "bytes32",
          "name": "",
          "type": "bytes32"
        }
      ],
      "stateMutability": "view",
      "type": "function"
    },
    {
      "inputs": [
        {
          "internalType": "bytes32",
          "name": "role",
          "type": "bytes32"
        },
        {
          "internalType": "address",
          "name": "account",
          "type": "address"
        }
      ],
      "name": "grantRole",
      "outputs": [],
      "stateMutability": "nonpayable",
      "type": "function"
    },
    {
      "inputs": [
        {
          "internalType": "bytes32",
          "name": "role",
          "type": "bytes32"
        },
        {
          "internalType": "address",
          "name": "account",
          "type": "address"
        }
      ],
      "name": "hasRole",
      "outputs": [
        {
          "internalType": "bool",
          "name": "",
          "type": "bool"
        }
      ],
      "stateMutability": "view",
      "type": "function"
    },
    {
      "inputs": [
        {
          "internalType": "address",
          "name": "owner",
          "type": "address"
        },
        {
          "internalType": "address",
          "name": "operator",
          "type": "address"
        }
      ],
      "name": "isApprovedForAll",
      "outputs": [
        {
          "internalType": "bool",
          "name": "",
          "type": "bool"
        }
      ],
      "stateMutability": "view",
      "type": "function"
    },
    {
      "inputs": [],
      "name": "name",
      "outputs": [
        {
          "internalType": "string",
          "name": "",
          "type": "string"
        }
      ],
      "stateMutability": "view",
      "type": "function"
    },
    {
      "inputs": [
        {
          "internalType": "uint256",
          "name": "tokenId",
          "type": "uint256"
        }
      ],
      "name": "ownerOf",
      "outputs": [
        {
          "internalType": "address",
          "name": "",
          "type": "address"
        }
      ],
      "stateMutability": "view",
      "type": "function"
    },
    {
      "inputs": [
        {
          "internalType": "address",
          "name": "redeemer",
          "type": "address"
        },
        {
          "components": [
            {
              "internalType": "uint256",
              "name": "tokenId",
              "type": "uint256"
            },
            {
              "internalType": "uint256",
              "name": "minPrice",
              "type": "uint256"
            },
            {
              "internalType": "string",
              "name": "uri",
              "type": "string"
            },
            {
              "internalType": "bytes",
              "name": "signature",
              "type": "bytes"
            }
          ],
          "internalType": "struct LazyNFT.NFTVoucher",
          "name": "voucher",
          "type": "tuple"
        }
      ],
      "name": "redeem",
      "outputs": [
        {
          "internalType": "uint256",
          "name": "",
          "type": "uint256"
        }
      ],
      "stateMutability": "payable",
      "type": "function"
    },
    {
      "inputs": [
        {
          "internalType": "bytes32",
          "name": "role",
          "type": "bytes32"
        },
        {
          "internalType": "address",
          "name": "account",
          "type": "address"
        }
      ],
      "name": "renounceRole",
      "outputs": [],
      "stateMutability": "nonpayable",
      "type": "function"
    },
    {
      "inputs": [
        {
          "internalType": "bytes32",
          "name": "role",
          "type": "bytes32"
        },
        {
          "internalType": "address",
          "name": "account",
          "type": "address"
        }
      ],
      "name": "revokeRole",
      "outputs": [],
      "stateMutability": "nonpayable",
      "type": "function"
    },
    {
      "inputs": [
        {
          "internalType": "address",
          "name": "from",
          "type": "address"
        },
        {
          "internalType": "address",
          "name": "to",
          "type": "address"
        },
        {
          "internalType": "uint256",
          "name": "tokenId",
          "type": "uint256"
        }
      ],
      "name": "safeTransferFrom",
      "outputs": [],
      "stateMutability": "nonpayable",
      "type": "function"
    },
    {
      "inputs": [
        {
          "internalType": "address",
          "name": "from",
          "type": "address"
        },
        {
          "internalType": "address",
          "name": "to",
          "type": "address"
        },
        {
          "internalType": "uint256",
          "name": "tokenId",
          "type": "uint256"
        },
        {
          "internalType": "bytes",
          "name": "_data",
          "type": "bytes"
        }
      ],
      "name": "safeTransferFrom",
      "outputs": [],
      "stateMutability": "nonpayable",
      "type": "function"
    },
    {
      "inputs": [
        {
          "internalType": "address",
          "name": "operator",
          "type": "address"
        },
        {
          "internalType": "bool",
          "name": "approved",
          "type": "bool"
        }
      ],
      "name": "setApprovalForAll",
      "outputs": [],
      "stateMutability": "nonpayable",
      "type": "function"
    },
    {
      "inputs": [
        {
          "internalType": "bytes4",
          "name": "interfaceId",
          "type": "bytes4"
        }
      ],
      "name": "supportsInterface",
      "outputs": [
        {
          "internalType": "bool",
          "name": "",
          "type": "bool"
        }
      ],
      "stateMutability": "view",
      "type": "function"
    },
    {
      "inputs": [],
      "name": "symbol",
      "outputs": [
        {
          "internalType": "string",
          "name": "",
          "type": "string"
        }
      ],
      "stateMutability": "view",
      "type": "function"
    },
    {
      "inputs": [
        {
          "internalType": "uint256",
          "name": "tokenId",
          "type": "uint256"
        }
      ],
      "name": "tokenURI",
      "outputs": [
        {
          "internalType": "string",
          "name": "",
          "type": "string"
        }
      ],
      "stateMutability": "view",
      "type": "function"
    },
    {
      "inputs": [
        {
          "internalType": "address",
          "name": "from",
          "type": "address"
        },
        {
          "internalType": "address",
          "name": "to",
          "type": "address"
        },
        {
          "internalType": "uint256",
          "name": "tokenId",
          "type": "uint256"
        }
      ],
      "name": "transferFrom",
      "outputs": [],
      "stateMutability": "nonpayable",
      "type": "function"
    },
    {
      "inputs": [],
      "name": "withdraw",
      "outputs": [],
      "stateMutability": "nonpayable",
      "type": "function"
    }
  ],
  "bytecode": "0x6101406040523480156200001257600080fd5b5060405162005014380380620050148339818101604052810190620000389190620004b0565b6040518060400160405280600f81526020017f4c617a794e46542d566f756368657200000000000000000000000000000000008152506040518060400160405280600181526020017f31000000000000000000000000000000000000000000000000000000000000008152506040518060400160405280600781526020017f4c617a794e4654000000000000000000000000000000000000000000000000008152506040518060400160405280600381526020017f4c415a0000000000000000000000000000000000000000000000000000000000815250816000908051906020019062000128929190620003e9565b50806001908051906020019062000141929190620003e9565b50505060008280519060200120905060008280519060200120905060007f8b73c3c69bb8fe3d512ecc4cf759cc79239f7b179b0ffacaa9a75d522b39400f90508260e081815250508161010081815250504660a08181525050620001ad8184846200023260201b60201c565b608081815250503073ffffffffffffffffffffffffffffffffffffffff1660c08173ffffffffffffffffffffffffffffffffffffffff1660601b8152505080610120818152505050505050506200022b7f9f2df0fed2c77648de5860a4cc508cd0818c85b8b8a1ab4ceeef8d981c8956a6826200026e60201b60201c565b5062000647565b600083838346306040516020016200024f9594939291906200050f565b6040516020818303038152906040528051906020012090509392505050565b6200028082826200028460201b60201c565b5050565b6200029682826200037660201b60201c565b620003725760016007600084815260200190815260200160002060000160008373ffffffffffffffffffffffffffffffffffffffff1673ffffffffffffffffffffffffffffffffffffffff16815260200190815260200160002060006101000a81548160ff02191690831515021790555062000317620003e160201b60201c565b73ffffffffffffffffffffffffffffffffffffffff168173ffffffffffffffffffffffffffffffffffffffff16837f2f8788117e7eff1d82e926ec794901d17c78024a50270940304540a733656f0d60405160405180910390a45b5050565b60006007600084815260200190815260200160002060000160008373ffffffffffffffffffffffffffffffffffffffff1673ffffffffffffffffffffffffffffffffffffffff16815260200190815260200160002060009054906101000a900460ff16905092915050565b600033905090565b828054620003f790620005c8565b90600052602060002090601f0160209004810192826200041b576000855562000467565b82601f106200043657805160ff191683800117855562000467565b8280016001018555821562000467579182015b828111156200046657825182559160200191906001019062000449565b5b5090506200047691906200047a565b5090565b5b80821115620004955760008160009055506001016200047b565b5090565b600081519050620004aa816200062d565b92915050565b600060208284031215620004c357600080fd5b6000620004d38482850162000499565b91505092915050565b620004e7816200056c565b82525050565b620004f88162000594565b82525050565b6200050981620005be565b82525050565b600060a082019050620005266000830188620004ed565b620005356020830187620004ed565b620005446040830186620004ed565b620005536060830185620004fe565b620005626080830184620004dc565b9695505050505050565b600062000579826200059e565b9050919050565b60006200058d826200059e565b9050919050565b6000819050919050565b600073ffffffffffffffffffffffffffffffffffffffff82169050919050565b6000819050919050565b60006002820490506001821680620005e157607f821691505b60208210811415620005f857620005f7620005fe565b5b50919050565b7f4e487b7100000000000000000000000000000000000000000000000000000000600052602260045260246000fd5b620006388162000580565b81146200064457600080fd5b50565b60805160a05160c05160601c60e051610100516101205161497a6200069a6000396000612b5001526000612b9201526000612b7101526000612aa601526000612afc01526000612b25015261497a6000f3fe60806040526004361061014b5760003560e01c80636352211e116100b6578063b88d4fde1161006f578063b88d4fde146104a7578063c87b56dd146104d0578063d53913931461050d578063d547741f14610538578063e322ad2b14610561578063e985e9c51461058c5761014b565b80636352211e1461037157806370a08231146103ae57806391d14854146103eb57806395d89b4114610428578063a217fddf14610453578063a22cb4651461047e5761014b565b8063248a9ca311610108578063248a9ca3146102775780632f2ff15d146102b457806336568abe146102dd5780633ccfd60b1461030657806342842e0e1461031d578063564b81ef146103465761014b565b806301ffc9a71461015057806306fdde031461018d578063081812fc146101b857806308708a78146101f5578063095ea7b31461022557806323b872dd1461024e575b600080fd5b34801561015c57600080fd5b5061017760048036038101906101729190613199565b6105c9565b6040516101849190613827565b60405180910390f35b34801561019957600080fd5b506101a26105eb565b6040516101af919061393a565b60405180910390f35b3480156101c457600080fd5b506101df60048036038101906101da91906131eb565b61067d565b6040516101ec91906137c0565b60405180910390f35b61020f600480360381019061020a91906130a4565b610702565b60405161021c9190613c7c565b60405180910390f35b34801561023157600080fd5b5061024c600480360381019061024791906130f8565b6108a1565b005b34801561025a57600080fd5b5061027560048036038101906102709190612f9e565b6109b9565b005b34801561028357600080fd5b5061029e60048036038101906102999190613134565b610a19565b6040516102ab9190613842565b60405180910390f35b3480156102c057600080fd5b506102db60048036038101906102d6919061315d565b610a39565b005b3480156102e957600080fd5b5061030460048036038101906102ff919061315d565b610a5a565b005b34801561031257600080fd5b5061031b610add565b005b34801561032957600080fd5b50610344600480360381019061033f9190612f9e565b610c1f565b005b34801561035257600080fd5b5061035b610c3f565b6040516103689190613c7c565b60405180910390f35b34801561037d57600080fd5b50610398600480360381019061039391906131eb565b610c4c565b6040516103a591906137c0565b60405180910390f35b3480156103ba57600080fd5b506103d560048036038101906103d09190612f39565b610cfe565b6040516103e29190613c7c565b60405180910390f35b3480156103f757600080fd5b50610412600480360381019061040d919061315d565b610db6565b60405161041f9190613827565b60405180910390f35b34801561043457600080fd5b5061043d610e21565b60405161044a919061393a565b60405180910390f35b34801561045f57600080fd5b50610468610eb3565b6040516104759190613842565b60405180910390f35b34801561048a57600080fd5b506104a560048036038101906104a09190613068565b610eba565b005b3480156104b357600080fd5b506104ce60048036038101906104c99190612fed565b610ed0565b005b3480156104dc57600080fd5b506104f760048036038101906104f291906131eb565b610f32565b604051610504919061393a565b60405180910390f35b34801561051957600080fd5b50610522611084565b60405161052f9190613842565b60405180910390f35b34801561054457600080fd5b5061055f600480360381019061055a919061315d565b6110a8565b005b34801561056d57600080fd5b506105766110c9565b6040516105839190613c7c565b60405180910390f35b34801561059857600080fd5b506105b360048036038101906105ae9190612f62565b611110565b6040516105c09190613827565b60405180910390f35b60006105d4826111a4565b806105e457506105e382611286565b5b9050919050565b6060600080546105fa90613ff5565b80601f016020809104026020016040519081016040528092919081815260200182805461062690613ff5565b80156106735780601f1061064857610100808354040283529160200191610673565b820191906000526020600020905b81548152906001019060200180831161065657829003601f168201915b5050505050905090565b600061068882611300565b6106c7576040517f08c379a00000000000000000000000000000000000000000000000000000000081526004016106be90613b9c565b60405180910390fd5b6004600083815260200190815260200160002060009054906101000a900473ffffffffffffffffffffffffffffffffffffffff169050919050565b60008061070e8361136c565b905061073a7f9f2df0fed2c77648de5860a4cc508cd0818c85b8b8a1ab4ceeef8d981c8956a682610db6565b610779576040517f08c379a000000000000000000000000000000000000000000000000000000000815260040161077090613c1c565b60405180910390fd5b82602001353410156107c0576040517f08c379a00000000000000000000000000000000000000000000000000000000081526004016107b790613b3c565b60405180910390fd5b6107ce8184600001356113de565b61082e83600001358480604001906107e69190613cee565b8080601f016020809104026020016040519081016040528093929190818152602001838380828437600081840152601f19601f820116905080830192505050505050506115b8565b61083d8185856000013561162c565b34600860008373ffffffffffffffffffffffffffffffffffffffff1673ffffffffffffffffffffffffffffffffffffffff168152602001908152602001600020600082825461088c9190613de9565b92505081905550826000013591505092915050565b60006108ac82610c4c565b90508073ffffffffffffffffffffffffffffffffffffffff168373ffffffffffffffffffffffffffffffffffffffff16141561091d576040517f08c379a000000000000000000000000000000000000000000000000000000000815260040161091490613bfc565b60405180910390fd5b8073ffffffffffffffffffffffffffffffffffffffff1661093c611893565b73ffffffffffffffffffffffffffffffffffffffff16148061096b575061096a81610965611893565b611110565b5b6109aa576040517f08c379a00000000000000000000000000000000000000000000000000000000081526004016109a190613a9c565b60405180910390fd5b6109b4838361189b565b505050565b6109ca6109c4611893565b82611954565b610a09576040517f08c379a0000000000000000000000000000000000000000000000000000000008152600401610a0090613c3c565b60405180910390fd5b610a1483838361162c565b505050565b600060076000838152602001908152602001600020600101549050919050565b610a4282610a19565b610a4b81611a32565b610a558383611a46565b505050565b610a62611893565b73ffffffffffffffffffffffffffffffffffffffff168173ffffffffffffffffffffffffffffffffffffffff1614610acf576040517f08c379a0000000000000000000000000000000000000000000000000000000008152600401610ac690613c5c565b60405180910390fd5b610ad98282611b27565b5050565b610b077f9f2df0fed2c77648de5860a4cc508cd0818c85b8b8a1ab4ceeef8d981c8956a633610db6565b610b46576040517f08c379a0000000000000000000000000000000000000000000000000000000008152600401610b3d90613bdc565b60405180910390fd5b60003390506000600860008373ffffffffffffffffffffffffffffffffffffffff1673ffffffffffffffffffffffffffffffffffffffff1681526020019081526020016000205490506000600860008473ffffffffffffffffffffffffffffffffffffffff1673ffffffffffffffffffffffffffffffffffffffff168152602001908152602001600020819055508173ffffffffffffffffffffffffffffffffffffffff166108fc829081150290604051600060405180830381858888f19350505050158015610c1a573d6000803e3d6000fd5b505050565b610c3a83838360405180602001604052806000815250610ed0565b505050565b6000804690508091505090565b6000806002600084815260200190815260200160002060009054906101000a900473ffffffffffffffffffffffffffffffffffffffff169050600073ffffffffffffffffffffffffffffffffffffffff168173ffffffffffffffffffffffffffffffffffffffff161415610cf5576040517f08c379a0000000000000000000000000000000000000000000000000000000008152600401610cec90613adc565b60405180910390fd5b80915050919050565b60008073ffffffffffffffffffffffffffffffffffffffff168273ffffffffffffffffffffffffffffffffffffffff161415610d6f576040517f08c379a0000000000000000000000000000000000000000000000000000000008152600401610d6690613abc565b60405180910390fd5b600360008373ffffffffffffffffffffffffffffffffffffffff1673ffffffffffffffffffffffffffffffffffffffff168152602001908152602001600020549050919050565b60006007600084815260200190815260200160002060000160008373ffffffffffffffffffffffffffffffffffffffff1673ffffffffffffffffffffffffffffffffffffffff16815260200190815260200160002060009054906101000a900460ff16905092915050565b606060018054610e3090613ff5565b80601f0160208091040260200160405190810160405280929190818152602001828054610e5c90613ff5565b8015610ea95780601f10610e7e57610100808354040283529160200191610ea9565b820191906000526020600020905b815481529060010190602001808311610e8c57829003601f168201915b5050505050905090565b6000801b81565b610ecc610ec5611893565b8383611c09565b5050565b610ee1610edb611893565b83611954565b610f20576040517f08c379a0000000000000000000000000000000000000000000000000000000008152600401610f1790613c3c565b60405180910390fd5b610f2c84848484611d76565b50505050565b6060610f3d82611300565b610f7c576040517f08c379a0000000000000000000000000000000000000000000000000000000008152600401610f7390613b7c565b60405180910390fd5b6000600660008481526020019081526020016000208054610f9c90613ff5565b80601f0160208091040260200160405190810160405280929190818152602001828054610fc890613ff5565b80156110155780601f10610fea57610100808354040283529160200191611015565b820191906000526020600020905b815481529060010190602001808311610ff857829003601f168201915b505050505090506000611026611dd2565b905060008151141561103c57819250505061107f565b60008251111561107157808260405160200161105992919061372b565b6040516020818303038152906040529250505061107f565b61107a84611de9565b925050505b919050565b7f9f2df0fed2c77648de5860a4cc508cd0818c85b8b8a1ab4ceeef8d981c8956a681565b6110b182610a19565b6110ba81611a32565b6110c48383611b27565b505050565b6000600860003373ffffffffffffffffffffffffffffffffffffffff1673ffffffffffffffffffffffffffffffffffffffff16815260200190815260200160002054905090565b6000600560008473ffffffffffffffffffffffffffffffffffffffff1673ffffffffffffffffffffffffffffffffffffffff16815260200190815260200160002060008373ffffffffffffffffffffffffffffffffffffffff1673ffffffffffffffffffffffffffffffffffffffff16815260200190815260200160002060009054906101000a900460ff16905092915050565b60007f80ac58cd000000000000000000000000000000000000000000000000000000007bffffffffffffffffffffffffffffffffffffffffffffffffffffffff1916827bffffffffffffffffffffffffffffffffffffffffffffffffffffffff1916148061126f57507f5b5e139f000000000000000000000000000000000000000000000000000000007bffffffffffffffffffffffffffffffffffffffffffffffffffffffff1916827bffffffffffffffffffffffffffffffffffffffffffffffffffffffff1916145b8061127f575061127e82611e90565b5b9050919050565b60007f7965db0b000000000000000000000000000000000000000000000000000000007bffffffffffffffffffffffffffffffffffffffffffffffffffffffff1916827bffffffffffffffffffffffffffffffffffffffffffffffffffffffff191614806112f957506112f8826111a4565b5b9050919050565b60008073ffffffffffffffffffffffffffffffffffffffff166002600084815260200190815260200160002060009054906101000a900473ffffffffffffffffffffffffffffffffffffffff1673ffffffffffffffffffffffffffffffffffffffff1614159050919050565b60008061137883611efa565b90506113d68184806060019061138e9190613c97565b8080601f016020809104026020016040519081016040528093929190818152602001838380828437600081840152601f19601f82011690508083019250505050505050611f85565b915050919050565b600073ffffffffffffffffffffffffffffffffffffffff168273ffffffffffffffffffffffffffffffffffffffff16141561144e576040517f08c379a000000000000000000000000000000000000000000000000000000000815260040161144590613b5c565b60405180910390fd5b61145781611300565b15611497576040517f08c379a000000000000000000000000000000000000000000000000000000000815260040161148e906139fc565b60405180910390fd5b6114a360008383611fac565b6001600360008473ffffffffffffffffffffffffffffffffffffffff1673ffffffffffffffffffffffffffffffffffffffff16815260200190815260200160002060008282546114f39190613de9565b92505081905550816002600083815260200190815260200160002060006101000a81548173ffffffffffffffffffffffffffffffffffffffff021916908373ffffffffffffffffffffffffffffffffffffffff160217905550808273ffffffffffffffffffffffffffffffffffffffff16600073ffffffffffffffffffffffffffffffffffffffff167fddf252ad1be2c89b69c2b068fc378daa952ba7f163c4a11628f55a4df523b3ef60405160405180910390a46115b460008383611fb1565b5050565b6115c182611300565b611600576040517f08c379a00000000000000000000000000000000000000000000000000000000081526004016115f790613afc565b60405180910390fd5b80600660008481526020019081526020016000209080519060200190611627929190612d95565b505050565b8273ffffffffffffffffffffffffffffffffffffffff1661164c82610c4c565b73ffffffffffffffffffffffffffffffffffffffff16146116a2576040517f08c379a0000000000000000000000000000000000000000000000000000000008152600401611699906139dc565b60405180910390fd5b600073ffffffffffffffffffffffffffffffffffffffff168273ffffffffffffffffffffffffffffffffffffffff161415611712576040517f08c379a000000000000000000000000000000000000000000000000000000000815260040161170990613a1c565b60405180910390fd5b61171d838383611fac565b61172860008261189b565b6001600360008573ffffffffffffffffffffffffffffffffffffffff1673ffffffffffffffffffffffffffffffffffffffff16815260200190815260200160002060008282546117789190613eca565b925050819055506001600360008473ffffffffffffffffffffffffffffffffffffffff1673ffffffffffffffffffffffffffffffffffffffff16815260200190815260200160002060008282546117cf9190613de9565b92505081905550816002600083815260200190815260200160002060006101000a81548173ffffffffffffffffffffffffffffffffffffffff021916908373ffffffffffffffffffffffffffffffffffffffff160217905550808273ffffffffffffffffffffffffffffffffffffffff168473ffffffffffffffffffffffffffffffffffffffff167fddf252ad1be2c89b69c2b068fc378daa952ba7f163c4a11628f55a4df523b3ef60405160405180910390a461188e838383611fb1565b505050565b600033905090565b816004600083815260200190815260200160002060006101000a81548173ffffffffffffffffffffffffffffffffffffffff021916908373ffffffffffffffffffffffffffffffffffffffff160217905550808273ffffffffffffffffffffffffffffffffffffffff1661190e83610c4c565b73ffffffffffffffffffffffffffffffffffffffff167f8c5be1e5ebec7d5bd14f71427d1e84f3dd0314c0f7b2291e5b200ac8c7c3b92560405160405180910390a45050565b600061195f82611300565b61199e576040517f08c379a000000000000000000000000000000000000000000000000000000000815260040161199590613a7c565b60405180910390fd5b60006119a983610c4c565b90508073ffffffffffffffffffffffffffffffffffffffff168473ffffffffffffffffffffffffffffffffffffffff1614806119eb57506119ea8185611110565b5b80611a2957508373ffffffffffffffffffffffffffffffffffffffff16611a118461067d565b73ffffffffffffffffffffffffffffffffffffffff16145b91505092915050565b611a4381611a3e611893565b611fb6565b50565b611a508282610db6565b611b235760016007600084815260200190815260200160002060000160008373ffffffffffffffffffffffffffffffffffffffff1673ffffffffffffffffffffffffffffffffffffffff16815260200190815260200160002060006101000a81548160ff021916908315150217905550611ac8611893565b73ffffffffffffffffffffffffffffffffffffffff168173ffffffffffffffffffffffffffffffffffffffff16837f2f8788117e7eff1d82e926ec794901d17c78024a50270940304540a733656f0d60405160405180910390a45b5050565b611b318282610db6565b15611c055760006007600084815260200190815260200160002060000160008373ffffffffffffffffffffffffffffffffffffffff1673ffffffffffffffffffffffffffffffffffffffff16815260200190815260200160002060006101000a81548160ff021916908315150217905550611baa611893565b73ffffffffffffffffffffffffffffffffffffffff168173ffffffffffffffffffffffffffffffffffffffff16837ff6391f5c32d9c69d2a47ea670b442974b53935d1edc7fd64eb21e047a839171b60405160405180910390a45b5050565b8173ffffffffffffffffffffffffffffffffffffffff168373ffffffffffffffffffffffffffffffffffffffff161415611c78576040517f08c379a0000000000000000000000000000000000000000000000000000000008152600401611c6f90613a3c565b60405180910390fd5b80600560008573ffffffffffffffffffffffffffffffffffffffff1673ffffffffffffffffffffffffffffffffffffffff16815260200190815260200160002060008473ffffffffffffffffffffffffffffffffffffffff1673ffffffffffffffffffffffffffffffffffffffff16815260200190815260200160002060006101000a81548160ff0219169083151502179055508173ffffffffffffffffffffffffffffffffffffffff168373ffffffffffffffffffffffffffffffffffffffff167f17307eab39ab6107e8899845ad3d59bd9653f200f220920489ca2b5937696c3183604051611d699190613827565b60405180910390a3505050565b611d8184848461162c565b611d8d84848484612053565b611dcc576040517f08c379a0000000000000000000000000000000000000000000000000000000008152600401611dc3906139bc565b60405180910390fd5b50505050565b606060405180602001604052806000815250905090565b6060611df482611300565b611e33576040517f08c379a0000000000000000000000000000000000000000000000000000000008152600401611e2a90613bbc565b60405180910390fd5b6000611e3d611dd2565b90506000815111611e5d5760405180602001604052806000815250611e88565b80611e67846121ea565b604051602001611e7892919061372b565b6040516020818303038152906040525b915050919050565b60007f01ffc9a7000000000000000000000000000000000000000000000000000000007bffffffffffffffffffffffffffffffffffffffffffffffffffffffff1916827bffffffffffffffffffffffffffffffffffffffffffffffffffffffff1916149050919050565b6000611f7e7f6316f9ddd4d59a364f3b95c26bab9d392c3380ace0fff15e91ed76f0d8bcd15a83600001358460200135858060400190611f3a9190613cee565b604051611f48929190613712565b6040518091039020604051602001611f6394939291906138b0565b60405160208183030381529060405280519060200120612397565b9050919050565b6000806000611f9485856123b1565b91509150611fa181612434565b819250505092915050565b505050565b505050565b611fc08282610db6565b61204f57611fe58173ffffffffffffffffffffffffffffffffffffffff166014612785565b611ff38360001c6020612785565b604051602001612004929190613786565b6040516020818303038152906040526040517f08c379a0000000000000000000000000000000000000000000000000000000008152600401612046919061393a565b60405180910390fd5b5050565b60006120748473ffffffffffffffffffffffffffffffffffffffff16612a7f565b156121dd578373ffffffffffffffffffffffffffffffffffffffff1663150b7a0261209d611893565b8786866040518563ffffffff1660e01b81526004016120bf94939291906137db565b602060405180830381600087803b1580156120d957600080fd5b505af192505050801561210a57506040513d601f19601f8201168201806040525081019061210791906131c2565b60015b61218d573d806000811461213a576040519150601f19603f3d011682016040523d82523d6000602084013e61213f565b606091505b50600081511415612185576040517f08c379a000000000000000000000000000000000000000000000000000000000815260040161217c906139bc565b60405180910390fd5b805181602001fd5b63150b7a0260e01b7bffffffffffffffffffffffffffffffffffffffffffffffffffffffff1916817bffffffffffffffffffffffffffffffffffffffffffffffffffffffff1916149150506121e2565b600190505b949350505050565b60606000821415612232576040518060400160405280600181526020017f30000000000000000000000000000000000000000000000000000000000000008152509050612392565b600082905060005b6000821461226457808061224d90614058565b915050600a8261225d9190613e3f565b915061223a565b60008167ffffffffffffffff8111156122a6577f4e487b7100000000000000000000000000000000000000000000000000000000600052604160045260246000fd5b6040519080825280601f01601f1916602001820160405280156122d85781602001600182028036833780820191505090505b5090505b6000851461238b576001826122f19190613eca565b9150600a8561230091906140ab565b603061230c9190613de9565b60f81b818381518110612348577f4e487b7100000000000000000000000000000000000000000000000000000000600052603260045260246000fd5b60200101907effffffffffffffffffffffffffffffffffffffffffffffffffffffffffffff1916908160001a905350600a856123849190613e3f565b94506122dc565b8093505050505b919050565b60006123aa6123a4612aa2565b83612bbc565b9050919050565b6000806041835114156123f35760008060006020860151925060408601519150606086015160001a90506123e787828585612bef565b9450945050505061242d565b604083511415612424576000806020850151915060408501519050612419868383612cfc565b93509350505061242d565b60006002915091505b9250929050565b6000600481111561246e577f4e487b7100000000000000000000000000000000000000000000000000000000600052602160045260246000fd5b8160048111156124a7577f4e487b7100000000000000000000000000000000000000000000000000000000600052602160045260246000fd5b14156124b257612782565b600160048111156124ec577f4e487b7100000000000000000000000000000000000000000000000000000000600052602160045260246000fd5b816004811115612525577f4e487b7100000000000000000000000000000000000000000000000000000000600052602160045260246000fd5b1415612566576040517f08c379a000000000000000000000000000000000000000000000000000000000815260040161255d9061395c565b60405180910390fd5b600260048111156125a0577f4e487b7100000000000000000000000000000000000000000000000000000000600052602160045260246000fd5b8160048111156125d9577f4e487b7100000000000000000000000000000000000000000000000000000000600052602160045260246000fd5b141561261a576040517f08c379a00000000000000000000000000000000000000000000000000000000081526004016126119061399c565b60405180910390fd5b60036004811115612654577f4e487b7100000000000000000000000000000000000000000000000000000000600052602160045260246000fd5b81600481111561268d577f4e487b7100000000000000000000000000000000000000000000000000000000600052602160045260246000fd5b14156126ce576040517f08c379a00000000000000000000000000000000000000000000000000000000081526004016126c590613a5c565b60405180910390fd5b600480811115612707577f4e487b7100000000000000000000000000000000000000000000000000000000600052602160045260246000fd5b816004811115612740577f4e487b7100000000000000000000000000000000000000000000000000000000600052602160045260246000fd5b1415612781576040517f08c379a000000000000000000000000000000000000000000000000000000000815260040161277890613b1c565b60405180910390fd5b5b50565b6060600060028360026127989190613e70565b6127a29190613de9565b67ffffffffffffffff8111156127e1577f4e487b7100000000000000000000000000000000000000000000000000000000600052604160045260246000fd5b6040519080825280601f01601f1916602001820160405280156128135781602001600182028036833780820191505090505b5090507f300000000000000000000000000000000000000000000000000000000000000081600081518110612871577f4e487b7100000000000000000000000000000000000000000000000000000000600052603260045260246000fd5b60200101907effffffffffffffffffffffffffffffffffffffffffffffffffffffffffffff1916908160001a9053507f7800000000000000000000000000000000000000000000000000000000000000816001815181106128fb577f4e487b7100000000000000000000000000000000000000000000000000000000600052603260045260246000fd5b60200101907effffffffffffffffffffffffffffffffffffffffffffffffffffffffffffff1916908160001a9053506000600184600261293b9190613e70565b6129459190613de9565b90505b6001811115612a31577f3031323334353637383961626364656600000000000000000000000000000000600f8616601081106129ad577f4e487b7100000000000000000000000000000000000000000000000000000000600052603260045260246000fd5b1a60f81b8282815181106129ea577f4e487b7100000000000000000000000000000000000000000000000000000000600052603260045260246000fd5b60200101907effffffffffffffffffffffffffffffffffffffffffffffffffffffffffffff1916908160001a905350600485901c945080612a2a90613fcb565b9050612948565b5060008414612a75576040517f08c379a0000000000000000000000000000000000000000000000000000000008152600401612a6c9061397c565b60405180910390fd5b8091505092915050565b6000808273ffffffffffffffffffffffffffffffffffffffff163b119050919050565b60007f000000000000000000000000000000000000000000000000000000000000000073ffffffffffffffffffffffffffffffffffffffff163073ffffffffffffffffffffffffffffffffffffffff16148015612b1e57507f000000000000000000000000000000000000000000000000000000000000000046145b15612b4b577f00000000000000000000000000000000000000000000000000000000000000009050612bb9565b612bb67f00000000000000000000000000000000000000000000000000000000000000007f00000000000000000000000000000000000000000000000000000000000000007f0000000000000000000000000000000000000000000000000000000000000000612d5b565b90505b90565b60008282604051602001612bd192919061374f565b60405160208183030381529060405280519060200120905092915050565b6000807f7fffffffffffffffffffffffffffffff5d576e7357a4501ddfe92f46681b20a08360001c1115612c2a576000600391509150612cf3565b601b8560ff1614158015612c425750601c8560ff1614155b15612c54576000600491509150612cf3565b600060018787878760405160008152602001604052604051612c7994939291906138f5565b6020604051602081039080840390855afa158015612c9b573d6000803e3d6000fd5b505050602060405103519050600073ffffffffffffffffffffffffffffffffffffffff168173ffffffffffffffffffffffffffffffffffffffff161415612cea57600060019250925050612cf3565b80600092509250505b94509492505050565b60008060007f7fffffffffffffffffffffffffffffffffffffffffffffffffffffffffffffff60001b841690506000601b60ff8660001c901c612d3f9190613de9565b9050612d4d87828885612bef565b935093505050935093915050565b60008383834630604051602001612d7695949392919061385d565b6040516020818303038152906040528051906020012090509392505050565b828054612da190613ff5565b90600052602060002090601f016020900481019282612dc35760008555612e0a565b82601f10612ddc57805160ff1916838001178555612e0a565b82800160010185558215612e0a579182015b82811115612e09578251825591602001919060010190612dee565b5b509050612e179190612e1b565b5090565b5b80821115612e34576000816000905550600101612e1c565b5090565b6000612e4b612e4684613d6a565b613d45565b905082815260208101848484011115612e6357600080fd5b612e6e848285613f89565b509392505050565b600081359050612e85816148d1565b92915050565b600081359050612e9a816148e8565b92915050565b600081359050612eaf816148ff565b92915050565b600081359050612ec481614916565b92915050565b600081519050612ed981614916565b92915050565b600082601f830112612ef057600080fd5b8135612f00848260208601612e38565b91505092915050565b600060808284031215612f1b57600080fd5b81905092915050565b600081359050612f338161492d565b92915050565b600060208284031215612f4b57600080fd5b6000612f5984828501612e76565b91505092915050565b60008060408385031215612f7557600080fd5b6000612f8385828601612e76565b9250506020612f9485828601612e76565b9150509250929050565b600080600060608486031215612fb357600080fd5b6000612fc186828701612e76565b9350506020612fd286828701612e76565b9250506040612fe386828701612f24565b9150509250925092565b6000806000806080858703121561300357600080fd5b600061301187828801612e76565b945050602061302287828801612e76565b935050604061303387828801612f24565b925050606085013567ffffffffffffffff81111561305057600080fd5b61305c87828801612edf565b91505092959194509250565b6000806040838503121561307b57600080fd5b600061308985828601612e76565b925050602061309a85828601612e8b565b9150509250929050565b600080604083850312156130b757600080fd5b60006130c585828601612e76565b925050602083013567ffffffffffffffff8111156130e257600080fd5b6130ee85828601612f09565b9150509250929050565b6000806040838503121561310b57600080fd5b600061311985828601612e76565b925050602061312a85828601612f24565b9150509250929050565b60006020828403121561314657600080fd5b600061315484828501612ea0565b91505092915050565b6000806040838503121561317057600080fd5b600061317e85828601612ea0565b925050602061318f85828601612e76565b9150509250929050565b6000602082840312156131ab57600080fd5b60006131b984828501612eb5565b91505092915050565b6000602082840312156131d457600080fd5b60006131e284828501612eca565b91505092915050565b6000602082840312156131fd57600080fd5b600061320b84828501612f24565b91505092915050565b61321d81613efe565b82525050565b61322c81613f10565b82525050565b61323b81613f1c565b82525050565b61325261324d82613f1c565b6140a1565b82525050565b60006132648385613dc2565b9350613271838584613f89565b82840190509392505050565b600061328882613d9b565b6132928185613db1565b93506132a2818560208601613f98565b6132ab81614198565b840191505092915050565b60006132c182613da6565b6132cb8185613dcd565b93506132db818560208601613f98565b6132e481614198565b840191505092915050565b60006132fa82613da6565b6133048185613dde565b9350613314818560208601613f98565b80840191505092915050565b600061332d601883613dcd565b9150613338826141a9565b602082019050919050565b6000613350602083613dcd565b915061335b826141d2565b602082019050919050565b6000613373601f83613dcd565b915061337e826141fb565b602082019050919050565b6000613396603283613dcd565b91506133a182614224565b604082019050919050565b60006133b9602583613dcd565b91506133c482614273565b604082019050919050565b60006133dc601c83613dcd565b91506133e7826142c2565b602082019050919050565b60006133ff600283613dde565b915061340a826142eb565b600282019050919050565b6000613422602483613dcd565b915061342d82614314565b604082019050919050565b6000613445601983613dcd565b915061345082614363565b602082019050919050565b6000613468602283613dcd565b91506134738261438c565b604082019050919050565b600061348b602c83613dcd565b9150613496826143db565b604082019050919050565b60006134ae603883613dcd565b91506134b98261442a565b604082019050919050565b60006134d1602a83613dcd565b91506134dc82614479565b604082019050919050565b60006134f4602983613dcd565b91506134ff826144c8565b604082019050919050565b6000613517602e83613dcd565b915061352282614517565b604082019050919050565b600061353a602283613dcd565b915061354582614566565b604082019050919050565b600061355d601c83613dcd565b9150613568826145b5565b602082019050919050565b6000613580602083613dcd565b915061358b826145de565b602082019050919050565b60006135a3603183613dcd565b91506135ae82614607565b604082019050919050565b60006135c6602c83613dcd565b91506135d182614656565b604082019050919050565b60006135e9602f83613dcd565b91506135f4826146a5565b604082019050919050565b600061360c602483613dcd565b9150613617826146f4565b604082019050919050565b600061362f602183613dcd565b915061363a82614743565b604082019050919050565b6000613652602183613dcd565b915061365d82614792565b604082019050919050565b6000613675603183613dcd565b9150613680826147e1565b604082019050919050565b6000613698601783613dde565b91506136a382614830565b601782019050919050565b60006136bb601183613dde565b91506136c682614859565b601182019050919050565b60006136de602f83613dcd565b91506136e982614882565b604082019050919050565b6136fd81613f72565b82525050565b61370c81613f7c565b82525050565b600061371f828486613258565b91508190509392505050565b600061373782856132ef565b915061374382846132ef565b91508190509392505050565b600061375a826133f2565b91506137668285613241565b6020820191506137768284613241565b6020820191508190509392505050565b60006137918261368b565b915061379d82856132ef565b91506137a8826136ae565b91506137b482846132ef565b91508190509392505050565b60006020820190506137d56000830184613214565b92915050565b60006080820190506137f06000830187613214565b6137fd6020830186613214565b61380a60408301856136f4565b818103606083015261381c818461327d565b905095945050505050565b600060208201905061383c6000830184613223565b92915050565b60006020820190506138576000830184613232565b92915050565b600060a0820190506138726000830188613232565b61387f6020830187613232565b61388c6040830186613232565b61389960608301856136f4565b6138a66080830184613214565b9695505050505050565b60006080820190506138c56000830187613232565b6138d260208301866136f4565b6138df60408301856136f4565b6138ec6060830184613232565b95945050505050565b600060808201905061390a6000830187613232565b6139176020830186613703565b6139246040830185613232565b6139316060830184613232565b95945050505050565b6000602082019050818103600083015261395481846132b6565b905092915050565b6000602082019050818103600083015261397581613320565b9050919050565b6000602082019050818103600083015261399581613343565b9050919050565b600060208201905081810360008301526139b581613366565b9050919050565b600060208201905081810360008301526139d581613389565b9050919050565b600060208201905081810360008301526139f5816133ac565b9050919050565b60006020820190508181036000830152613a15816133cf565b9050919050565b60006020820190508181036000830152613a3581613415565b9050919050565b60006020820190508181036000830152613a5581613438565b9050919050565b60006020820190508181036000830152613a758161345b565b9050919050565b60006020820190508181036000830152613a958161347e565b9050919050565b60006020820190508181036000830152613ab5816134a1565b9050919050565b60006020820190508181036000830152613ad5816134c4565b9050919050565b60006020820190508181036000830152613af5816134e7565b9050919050565b60006020820190508181036000830152613b158161350a565b9050919050565b60006020820190508181036000830152613b358161352d565b9050919050565b60006020820190508181036000830152613b5581613550565b9050919050565b60006020820190508181036000830152613b7581613573565b9050919050565b60006020820190508181036000830152613b9581613596565b9050919050565b60006020820190508181036000830152613bb5816135b9565b9050919050565b60006020820190508181036000830152613bd5816135dc565b9050919050565b60006020820190508181036000830152613bf5816135ff565b9050919050565b60006020820190508181036000830152613c1581613622565b9050919050565b60006020820190508181036000830152613c3581613645565b9050919050565b60006020820190508181036000830152613c5581613668565b9050919050565b60006020820190508181036000830152613c75816136d1565b9050919050565b6000602082019050613c9160008301846136f4565b92915050565b60008083356001602003843603038112613cb057600080fd5b80840192508235915067ffffffffffffffff821115613cce57600080fd5b602083019250600182023603831315613ce657600080fd5b509250929050565b60008083356001602003843603038112613d0757600080fd5b80840192508235915067ffffffffffffffff821115613d2557600080fd5b602083019250600182023603831315613d3d57600080fd5b509250929050565b6000613d4f613d60565b9050613d5b8282614027565b919050565b6000604051905090565b600067ffffffffffffffff821115613d8557613d84614169565b5b613d8e82614198565b9050602081019050919050565b600081519050919050565b600081519050919050565b600082825260208201905092915050565b600081905092915050565b600082825260208201905092915050565b600081905092915050565b6000613df482613f72565b9150613dff83613f72565b9250827fffffffffffffffffffffffffffffffffffffffffffffffffffffffffffffffff03821115613e3457613e336140dc565b5b828201905092915050565b6000613e4a82613f72565b9150613e5583613f72565b925082613e6557613e6461410b565b5b828204905092915050565b6000613e7b82613f72565b9150613e8683613f72565b9250817fffffffffffffffffffffffffffffffffffffffffffffffffffffffffffffffff0483118215151615613ebf57613ebe6140dc565b5b828202905092915050565b6000613ed582613f72565b9150613ee083613f72565b925082821015613ef357613ef26140dc565b5b828203905092915050565b6000613f0982613f52565b9050919050565b60008115159050919050565b6000819050919050565b60007fffffffff0000000000000000000000000000000000000000000000000000000082169050919050565b600073ffffffffffffffffffffffffffffffffffffffff82169050919050565b6000819050919050565b600060ff82169050919050565b82818337600083830152505050565b60005b83811015613fb6578082015181840152602081019050613f9b565b83811115613fc5576000848401525b50505050565b6000613fd682613f72565b91506000821415613fea57613fe96140dc565b5b600182039050919050565b6000600282049050600182168061400d57607f821691505b602082108114156140215761402061413a565b5b50919050565b61403082614198565b810181811067ffffffffffffffff8211171561404f5761404e614169565b5b80604052505050565b600061406382613f72565b91507fffffffffffffffffffffffffffffffffffffffffffffffffffffffffffffffff821415614096576140956140dc565b5b600182019050919050565b6000819050919050565b60006140b682613f72565b91506140c183613f72565b9250826140d1576140d061410b565b5b828206905092915050565b7f4e487b7100000000000000000000000000000000000000000000000000000000600052601160045260246000fd5b7f4e487b7100000000000000000000000000000000000000000000000000000000600052601260045260246000fd5b7f4e487b7100000000000000000000000000000000000000000000000000000000600052602260045260246000fd5b7f4e487b7100000000000000000000000000000000000000000000000000000000600052604160045260246000fd5b6000601f19601f8301169050919050565b7f45434453413a20696e76616c6964207369676e61747572650000000000000000600082015250565b7f537472696e67733a20686578206c656e67746820696e73756666696369656e74600082015250565b7f45434453413a20696e76616c6964207369676e6174757265206c656e67746800600082015250565b7f4552433732313a207472616e7366657220746f206e6f6e20455243373231526560008201527f63656976657220696d706c656d656e7465720000000000000000000000000000602082015250565b7f4552433732313a207472616e736665722066726f6d20696e636f72726563742060008201527f6f776e6572000000000000000000000000000000000000000000000000000000602082015250565b7f4552433732313a20746f6b656e20616c7265616479206d696e74656400000000600082015250565b7f1901000000000000000000000000000000000000000000000000000000000000600082015250565b7f4552433732313a207472616e7366657220746f20746865207a65726f2061646460008201527f7265737300000000000000000000000000000000000000000000000000000000602082015250565b7f4552433732313a20617070726f766520746f2063616c6c657200000000000000600082015250565b7f45434453413a20696e76616c6964207369676e6174757265202773272076616c60008201527f7565000000000000000000000000000000000000000000000000000000000000602082015250565b7f4552433732313a206f70657261746f7220717565727920666f72206e6f6e657860008201527f697374656e7420746f6b656e0000000000000000000000000000000000000000602082015250565b7f4552433732313a20617070726f76652063616c6c6572206973206e6f74206f7760008201527f6e6572206e6f7220617070726f76656420666f7220616c6c0000000000000000602082015250565b7f4552433732313a2062616c616e636520717565727920666f7220746865207a6560008201527f726f206164647265737300000000000000000000000000000000000000000000602082015250565b7f4552433732313a206f776e657220717565727920666f72206e6f6e657869737460008201527f656e7420746f6b656e0000000000000000000000000000000000000000000000602082015250565b7f45524337323155524953746f726167653a2055524920736574206f66206e6f6e60008201527f6578697374656e7420746f6b656e000000000000000000000000000000000000602082015250565b7f45434453413a20696e76616c6964207369676e6174757265202776272076616c60008201527f7565000000000000000000000000000000000000000000000000000000000000602082015250565b7f496e73756666696369656e742066756e647320746f2072656465656d00000000600082015250565b7f4552433732313a206d696e7420746f20746865207a65726f2061646472657373600082015250565b7f45524337323155524953746f726167653a2055524920717565727920666f722060008201527f6e6f6e6578697374656e7420746f6b656e000000000000000000000000000000602082015250565b7f4552433732313a20617070726f76656420717565727920666f72206e6f6e657860008201527f697374656e7420746f6b656e0000000000000000000000000000000000000000602082015250565b7f4552433732314d657461646174613a2055524920717565727920666f72206e6f60008201527f6e6578697374656e7420746f6b656e0000000000000000000000000000000000602082015250565b7f4f6e6c7920617574686f72697a6564206d696e746572732063616e207769746860008201527f6472617700000000000000000000000000000000000000000000000000000000602082015250565b7f4552433732313a20617070726f76616c20746f2063757272656e74206f776e6560008201527f7200000000000000000000000000000000000000000000000000000000000000602082015250565b7f5369676e617475726520696e76616c6964206f7220756e617574686f72697a6560008201527f6400000000000000000000000000000000000000000000000000000000000000602082015250565b7f4552433732313a207472616e736665722063616c6c6572206973206e6f74206f60008201527f776e6572206e6f7220617070726f766564000000000000000000000000000000602082015250565b7f416363657373436f6e74726f6c3a206163636f756e7420000000000000000000600082015250565b7f206973206d697373696e6720726f6c6520000000000000000000000000000000600082015250565b7f416363657373436f6e74726f6c3a2063616e206f6e6c792072656e6f756e636560008201527f20726f6c657320666f722073656c660000000000000000000000000000000000602082015250565b6148da81613efe565b81146148e557600080fd5b50565b6148f181613f10565b81146148fc57600080fd5b50565b61490881613f1c565b811461491357600080fd5b50565b61491f81613f26565b811461492a57600080fd5b50565b61493681613f72565b811461494157600080fd5b5056fea264697066735822122073c6e73fe440c67c662d795985adc100aaeebfa7f6c48d44ef2401c98cb3175764736f6c63430008040033",
  "linkReferences": {},
  "deployedLinkReferences": {}
}