{
  "_format": "hh-sol-artifact-1",
  "contractName": "LazyNFT",
  "sourceName": "src/backend/contracts/LazyNFT.sol",
  "abi": [
    {
      "inputs": [
        {
          "internalType": "address payable",
          "name": "minter",
          "type": "address"
        }
      ],
      "stateMutability": "nonpayable",
      "type": "constructor"
    },
    {
      "anonymous": false,
      "inputs": [
        {
          "indexed": true,
          "internalType": "address",
          "name": "owner",
          "type": "address"
        },
        {
          "indexed": true,
          "internalType": "address",
          "name": "approved",
          "type": "address"
        },
        {
          "indexed": true,
          "internalType": "uint256",
          "name": "tokenId",
          "type": "uint256"
        }
      ],
      "name": "Approval",
      "type": "event"
    },
    {
      "anonymous": false,
      "inputs": [
        {
          "indexed": true,
          "internalType": "address",
          "name": "owner",
          "type": "address"
        },
        {
          "indexed": true,
          "internalType": "address",
          "name": "operator",
          "type": "address"
        },
        {
          "indexed": false,
          "internalType": "bool",
          "name": "approved",
          "type": "bool"
        }
      ],
      "name": "ApprovalForAll",
      "type": "event"
    },
    {
      "anonymous": false,
      "inputs": [
        {
          "indexed": true,
          "internalType": "bytes32",
          "name": "role",
          "type": "bytes32"
        },
        {
          "indexed": true,
          "internalType": "bytes32",
          "name": "previousAdminRole",
          "type": "bytes32"
        },
        {
          "indexed": true,
          "internalType": "bytes32",
          "name": "newAdminRole",
          "type": "bytes32"
        }
      ],
      "name": "RoleAdminChanged",
      "type": "event"
    },
    {
      "anonymous": false,
      "inputs": [
        {
          "indexed": true,
          "internalType": "bytes32",
          "name": "role",
          "type": "bytes32"
        },
        {
          "indexed": true,
          "internalType": "address",
          "name": "account",
          "type": "address"
        },
        {
          "indexed": true,
          "internalType": "address",
          "name": "sender",
          "type": "address"
        }
      ],
      "name": "RoleGranted",
      "type": "event"
    },
    {
      "anonymous": false,
      "inputs": [
        {
          "indexed": true,
          "internalType": "bytes32",
          "name": "role",
          "type": "bytes32"
        },
        {
          "indexed": true,
          "internalType": "address",
          "name": "account",
          "type": "address"
        },
        {
          "indexed": true,
          "internalType": "address",
          "name": "sender",
          "type": "address"
        }
      ],
      "name": "RoleRevoked",
      "type": "event"
    },
    {
      "anonymous": false,
      "inputs": [
        {
          "indexed": true,
          "internalType": "address",
          "name": "from",
          "type": "address"
        },
        {
          "indexed": true,
          "internalType": "address",
          "name": "to",
          "type": "address"
        },
        {
          "indexed": true,
          "internalType": "uint256",
          "name": "tokenId",
          "type": "uint256"
        }
      ],
      "name": "Transfer",
      "type": "event"
    },
    {
      "inputs": [],
      "name": "DEFAULT_ADMIN_ROLE",
      "outputs": [
        {
          "internalType": "bytes32",
          "name": "",
          "type": "bytes32"
        }
      ],
      "stateMutability": "view",
      "type": "function"
    },
    {
      "inputs": [],
      "name": "MINTER_ROLE",
      "outputs": [
        {
          "internalType": "bytes32",
          "name": "",
          "type": "bytes32"
        }
      ],
      "stateMutability": "view",
      "type": "function"
    },
    {
      "inputs": [
        {
          "internalType": "address",
          "name": "to",
          "type": "address"
        },
        {
          "internalType": "uint256",
          "name": "tokenId",
          "type": "uint256"
        }
      ],
      "name": "approve",
      "outputs": [],
      "stateMutability": "nonpayable",
      "type": "function"
    },
    {
      "inputs": [],
      "name": "availableToWithdraw",
      "outputs": [
        {
          "internalType": "uint256",
          "name": "",
          "type": "uint256"
        }
      ],
      "stateMutability": "view",
      "type": "function"
    },
    {
      "inputs": [
        {
          "internalType": "address",
          "name": "owner",
          "type": "address"
        }
      ],
      "name": "balanceOf",
      "outputs": [
        {
          "internalType": "uint256",
          "name": "",
          "type": "uint256"
        }
      ],
      "stateMutability": "view",
      "type": "function"
    },
    {
      "inputs": [
        {
          "internalType": "uint256",
          "name": "tokenId",
          "type": "uint256"
        }
      ],
      "name": "getApproved",
      "outputs": [
        {
          "internalType": "address",
          "name": "",
          "type": "address"
        }
      ],
      "stateMutability": "view",
      "type": "function"
    },
    {
      "inputs": [],
      "name": "getChainID",
      "outputs": [
        {
          "internalType": "uint256",
          "name": "",
          "type": "uint256"
        }
      ],
      "stateMutability": "view",
      "type": "function"
    },
    {
      "inputs": [
        {
          "internalType": "bytes32",
          "name": "role",
          "type": "bytes32"
        }
      ],
      "name": "getRoleAdmin",
      "outputs": [
        {
          "internalType": "bytes32",
          "name": "",
          "type": "bytes32"
        }
      ],
      "stateMutability": "view",
      "type": "function"
    },
    {
      "inputs": [
        {
          "internalType": "bytes32",
          "name": "role",
          "type": "bytes32"
        },
        {
          "internalType": "address",
          "name": "account",
          "type": "address"
        }
      ],
      "name": "grantRole",
      "outputs": [],
      "stateMutability": "nonpayable",
      "type": "function"
    },
    {
      "inputs": [
        {
          "internalType": "bytes32",
          "name": "role",
          "type": "bytes32"
        },
        {
          "internalType": "address",
          "name": "account",
          "type": "address"
        }
      ],
      "name": "hasRole",
      "outputs": [
        {
          "internalType": "bool",
          "name": "",
          "type": "bool"
        }
      ],
      "stateMutability": "view",
      "type": "function"
    },
    {
      "inputs": [
        {
          "internalType": "address",
          "name": "owner",
          "type": "address"
        },
        {
          "internalType": "address",
          "name": "operator",
          "type": "address"
        }
      ],
      "name": "isApprovedForAll",
      "outputs": [
        {
          "internalType": "bool",
          "name": "",
          "type": "bool"
        }
      ],
      "stateMutability": "view",
      "type": "function"
    },
    {
      "inputs": [],
      "name": "name",
      "outputs": [
        {
          "internalType": "string",
          "name": "",
          "type": "string"
        }
      ],
      "stateMutability": "view",
      "type": "function"
    },
    {
      "inputs": [
        {
          "internalType": "uint256",
          "name": "tokenId",
          "type": "uint256"
        }
      ],
      "name": "ownerOf",
      "outputs": [
        {
          "internalType": "address",
          "name": "",
          "type": "address"
        }
      ],
      "stateMutability": "view",
      "type": "function"
    },
    {
      "inputs": [
        {
          "internalType": "address",
          "name": "redeemer",
          "type": "address"
        },
        {
          "components": [
            {
              "internalType": "uint256",
              "name": "tokenId",
              "type": "uint256"
            },
            {
              "internalType": "uint256",
              "name": "minPrice",
              "type": "uint256"
            },
            {
              "internalType": "string",
              "name": "uri",
              "type": "string"
            },
            {
              "internalType": "bytes",
              "name": "signature",
              "type": "bytes"
            }
          ],
          "internalType": "struct LazyNFT.NFTVoucher",
          "name": "voucher",
          "type": "tuple"
        }
      ],
      "name": "redeem",
      "outputs": [
        {
          "internalType": "uint256",
          "name": "",
          "type": "uint256"
        }
      ],
      "stateMutability": "payable",
      "type": "function"
    },
    {
      "inputs": [
        {
          "internalType": "bytes32",
          "name": "role",
          "type": "bytes32"
        },
        {
          "internalType": "address",
          "name": "account",
          "type": "address"
        }
      ],
      "name": "renounceRole",
      "outputs": [],
      "stateMutability": "nonpayable",
      "type": "function"
    },
    {
      "inputs": [
        {
          "internalType": "bytes32",
          "name": "role",
          "type": "bytes32"
        },
        {
          "internalType": "address",
          "name": "account",
          "type": "address"
        }
      ],
      "name": "revokeRole",
      "outputs": [],
      "stateMutability": "nonpayable",
      "type": "function"
    },
    {
      "inputs": [
        {
          "internalType": "address",
          "name": "from",
          "type": "address"
        },
        {
          "internalType": "address",
          "name": "to",
          "type": "address"
        },
        {
          "internalType": "uint256",
          "name": "tokenId",
          "type": "uint256"
        }
      ],
      "name": "safeTransferFrom",
      "outputs": [],
      "stateMutability": "nonpayable",
      "type": "function"
    },
    {
      "inputs": [
        {
          "internalType": "address",
          "name": "from",
          "type": "address"
        },
        {
          "internalType": "address",
          "name": "to",
          "type": "address"
        },
        {
          "internalType": "uint256",
          "name": "tokenId",
          "type": "uint256"
        },
        {
          "internalType": "bytes",
          "name": "_data",
          "type": "bytes"
        }
      ],
      "name": "safeTransferFrom",
      "outputs": [],
      "stateMutability": "nonpayable",
      "type": "function"
    },
    {
      "inputs": [
        {
          "internalType": "address",
          "name": "operator",
          "type": "address"
        },
        {
          "internalType": "bool",
          "name": "approved",
          "type": "bool"
        }
      ],
      "name": "setApprovalForAll",
      "outputs": [],
      "stateMutability": "nonpayable",
      "type": "function"
    },
    {
      "inputs": [
        {
          "internalType": "bytes4",
          "name": "interfaceId",
          "type": "bytes4"
        }
      ],
      "name": "supportsInterface",
      "outputs": [
        {
          "internalType": "bool",
          "name": "",
          "type": "bool"
        }
      ],
      "stateMutability": "view",
      "type": "function"
    },
    {
      "inputs": [],
      "name": "symbol",
      "outputs": [
        {
          "internalType": "string",
          "name": "",
          "type": "string"
        }
      ],
      "stateMutability": "view",
      "type": "function"
    },
    {
      "inputs": [
        {
          "internalType": "uint256",
          "name": "tokenId",
          "type": "uint256"
        }
      ],
      "name": "tokenURI",
      "outputs": [
        {
          "internalType": "string",
          "name": "",
          "type": "string"
        }
      ],
      "stateMutability": "view",
      "type": "function"
    },
    {
      "inputs": [
        {
          "internalType": "address",
          "name": "from",
          "type": "address"
        },
        {
          "internalType": "address",
          "name": "to",
          "type": "address"
        },
        {
          "internalType": "uint256",
          "name": "tokenId",
          "type": "uint256"
        }
      ],
      "name": "transferFrom",
      "outputs": [],
      "stateMutability": "nonpayable",
      "type": "function"
    },
    {
      "inputs": [],
      "name": "withdraw",
      "outputs": [],
      "stateMutability": "nonpayable",
      "type": "function"
    }
  ],
  "bytecode": "0x6101406040523480156200001257600080fd5b5060405162004f1938038062004f198339818101604052810190620000389190620004b0565b6040518060400160405280600f81526020017f4c617a794e46542d566f756368657200000000000000000000000000000000008152506040518060400160405280600181526020017f31000000000000000000000000000000000000000000000000000000000000008152506040518060400160405280600781526020017f4c617a794e4654000000000000000000000000000000000000000000000000008152506040518060400160405280600381526020017f4c415a0000000000000000000000000000000000000000000000000000000000815250816000908051906020019062000128929190620003e9565b50806001908051906020019062000141929190620003e9565b50505060008280519060200120905060008280519060200120905060007f8b73c3c69bb8fe3d512ecc4cf759cc79239f7b179b0ffacaa9a75d522b39400f90508260e081815250508161010081815250504660a08181525050620001ad8184846200023260201b60201c565b608081815250503073ffffffffffffffffffffffffffffffffffffffff1660c08173ffffffffffffffffffffffffffffffffffffffff1660601b8152505080610120818152505050505050506200022b7f9f2df0fed2c77648de5860a4cc508cd0818c85b8b8a1ab4ceeef8d981c8956a6826200026e60201b60201c565b5062000647565b600083838346306040516020016200024f9594939291906200050f565b6040516020818303038152906040528051906020012090509392505050565b6200028082826200028460201b60201c565b5050565b6200029682826200037660201b60201c565b620003725760016007600084815260200190815260200160002060000160008373ffffffffffffffffffffffffffffffffffffffff1673ffffffffffffffffffffffffffffffffffffffff16815260200190815260200160002060006101000a81548160ff02191690831515021790555062000317620003e160201b60201c565b73ffffffffffffffffffffffffffffffffffffffff168173ffffffffffffffffffffffffffffffffffffffff16837f2f8788117e7eff1d82e926ec794901d17c78024a50270940304540a733656f0d60405160405180910390a45b5050565b60006007600084815260200190815260200160002060000160008373ffffffffffffffffffffffffffffffffffffffff1673ffffffffffffffffffffffffffffffffffffffff16815260200190815260200160002060009054906101000a900460ff16905092915050565b600033905090565b828054620003f790620005c8565b90600052602060002090601f0160209004810192826200041b576000855562000467565b82601f106200043657805160ff191683800117855562000467565b8280016001018555821562000467579182015b828111156200046657825182559160200191906001019062000449565b5b5090506200047691906200047a565b5090565b5b80821115620004955760008160009055506001016200047b565b5090565b600081519050620004aa816200062d565b92915050565b600060208284031215620004c357600080fd5b6000620004d38482850162000499565b91505092915050565b620004e7816200056c565b82525050565b620004f88162000594565b82525050565b6200050981620005be565b82525050565b600060a082019050620005266000830188620004ed565b620005356020830187620004ed565b620005446040830186620004ed565b620005536060830185620004fe565b620005626080830184620004dc565b9695505050505050565b600062000579826200059e565b9050919050565b60006200058d826200059e565b9050919050565b6000819050919050565b600073ffffffffffffffffffffffffffffffffffffffff82169050919050565b6000819050919050565b60006002820490506001821680620005e157607f821691505b60208210811415620005f857620005f7620005fe565b5b50919050565b7f4e487b7100000000000000000000000000000000000000000000000000000000600052602260045260246000fd5b620006388162000580565b81146200064457600080fd5b50565b60805160a05160c05160601c60e051610100516101205161487f6200069a6000396000612ae701526000612b2901526000612b0801526000612a3d01526000612a9301526000612abc015261487f6000f3fe60806040526004361061014b5760003560e01c80636352211e116100b6578063b88d4fde1161006f578063b88d4fde146104a7578063c87b56dd146104d0578063d53913931461050d578063d547741f14610538578063e322ad2b14610561578063e985e9c51461058c5761014b565b80636352211e1461037157806370a08231146103ae57806391d14854146103eb57806395d89b4114610428578063a217fddf14610453578063a22cb4651461047e5761014b565b8063248a9ca311610108578063248a9ca3146102775780632f2ff15d146102b457806336568abe146102dd5780633ccfd60b1461030657806342842e0e1461031d578063564b81ef146103465761014b565b806301ffc9a71461015057806306fdde031461018d578063081812fc146101b857806308708a78146101f5578063095ea7b31461022557806323b872dd1461024e575b600080fd5b34801561015c57600080fd5b5061017760048036038101906101729190613130565b6105c9565b604051610184919061379b565b60405180910390f35b34801561019957600080fd5b506101a26105eb565b6040516101af91906138ae565b60405180910390f35b3480156101c457600080fd5b506101df60048036038101906101da9190613182565b61067d565b6040516101ec9190613734565b60405180910390f35b61020f600480360381019061020a919061303b565b610702565b60405161021c9190613bd0565b60405180910390f35b34801561023157600080fd5b5061024c6004803603810190610247919061308f565b610838565b005b34801561025a57600080fd5b5061027560048036038101906102709190612f35565b610950565b005b34801561028357600080fd5b5061029e600480360381019061029991906130cb565b6109b0565b6040516102ab91906137b6565b60405180910390f35b3480156102c057600080fd5b506102db60048036038101906102d691906130f4565b6109d0565b005b3480156102e957600080fd5b5061030460048036038101906102ff91906130f4565b6109f1565b005b34801561031257600080fd5b5061031b610a74565b005b34801561032957600080fd5b50610344600480360381019061033f9190612f35565b610bb6565b005b34801561035257600080fd5b5061035b610bd6565b6040516103689190613bd0565b60405180910390f35b34801561037d57600080fd5b5061039860048036038101906103939190613182565b610be3565b6040516103a59190613734565b60405180910390f35b3480156103ba57600080fd5b506103d560048036038101906103d09190612ed0565b610c95565b6040516103e29190613bd0565b60405180910390f35b3480156103f757600080fd5b50610412600480360381019061040d91906130f4565b610d4d565b60405161041f919061379b565b60405180910390f35b34801561043457600080fd5b5061043d610db8565b60405161044a91906138ae565b60405180910390f35b34801561045f57600080fd5b50610468610e4a565b60405161047591906137b6565b60405180910390f35b34801561048a57600080fd5b506104a560048036038101906104a09190612fff565b610e51565b005b3480156104b357600080fd5b506104ce60048036038101906104c99190612f84565b610e67565b005b3480156104dc57600080fd5b506104f760048036038101906104f29190613182565b610ec9565b60405161050491906138ae565b60405180910390f35b34801561051957600080fd5b5061052261101b565b60405161052f91906137b6565b60405180910390f35b34801561054457600080fd5b5061055f600480360381019061055a91906130f4565b61103f565b005b34801561056d57600080fd5b50610576611060565b6040516105839190613bd0565b60405180910390f35b34801561059857600080fd5b506105b360048036038101906105ae9190612ef9565b6110a7565b6040516105c0919061379b565b60405180910390f35b60006105d48261113b565b806105e457506105e38261121d565b5b9050919050565b6060600080546105fa90613f49565b80601f016020809104026020016040519081016040528092919081815260200182805461062690613f49565b80156106735780601f1061064857610100808354040283529160200191610673565b820191906000526020600020905b81548152906001019060200180831161065657829003601f168201915b5050505050905090565b600061068882611297565b6106c7576040517f08c379a00000000000000000000000000000000000000000000000000000000081526004016106be90613b10565b60405180910390fd5b6004600083815260200190815260200160002060009054906101000a900473ffffffffffffffffffffffffffffffffffffffff169050919050565b60008061070e83611303565b90508260200135341015610757576040517f08c379a000000000000000000000000000000000000000000000000000000000815260040161074e90613ab0565b60405180910390fd5b610765818460000135611375565b6107c5836000013584806040019061077d9190613c42565b8080601f016020809104026020016040519081016040528093929190818152602001838380828437600081840152601f19601f8201169050808301925050505050505061154f565b6107d4818585600001356115c3565b34600860008373ffffffffffffffffffffffffffffffffffffffff1673ffffffffffffffffffffffffffffffffffffffff16815260200190815260200160002060008282546108239190613d3d565b92505081905550826000013591505092915050565b600061084382610be3565b90508073ffffffffffffffffffffffffffffffffffffffff168373ffffffffffffffffffffffffffffffffffffffff1614156108b4576040517f08c379a00000000000000000000000000000000000000000000000000000000081526004016108ab90613b70565b60405180910390fd5b8073ffffffffffffffffffffffffffffffffffffffff166108d361182a565b73ffffffffffffffffffffffffffffffffffffffff1614806109025750610901816108fc61182a565b6110a7565b5b610941576040517f08c379a000000000000000000000000000000000000000000000000000000000815260040161093890613a10565b60405180910390fd5b61094b8383611832565b505050565b61096161095b61182a565b826118eb565b6109a0576040517f08c379a000000000000000000000000000000000000000000000000000000000815260040161099790613b90565b60405180910390fd5b6109ab8383836115c3565b505050565b600060076000838152602001908152602001600020600101549050919050565b6109d9826109b0565b6109e2816119c9565b6109ec83836119dd565b505050565b6109f961182a565b73ffffffffffffffffffffffffffffffffffffffff168173ffffffffffffffffffffffffffffffffffffffff1614610a66576040517f08c379a0000000000000000000000000000000000000000000000000000000008152600401610a5d90613bb0565b60405180910390fd5b610a708282611abe565b5050565b610a9e7f9f2df0fed2c77648de5860a4cc508cd0818c85b8b8a1ab4ceeef8d981c8956a633610d4d565b610add576040517f08c379a0000000000000000000000000000000000000000000000000000000008152600401610ad490613b50565b60405180910390fd5b60003390506000600860008373ffffffffffffffffffffffffffffffffffffffff1673ffffffffffffffffffffffffffffffffffffffff1681526020019081526020016000205490506000600860008473ffffffffffffffffffffffffffffffffffffffff1673ffffffffffffffffffffffffffffffffffffffff168152602001908152602001600020819055508173ffffffffffffffffffffffffffffffffffffffff166108fc829081150290604051600060405180830381858888f19350505050158015610bb1573d6000803e3d6000fd5b505050565b610bd183838360405180602001604052806000815250610e67565b505050565b6000804690508091505090565b6000806002600084815260200190815260200160002060009054906101000a900473ffffffffffffffffffffffffffffffffffffffff169050600073ffffffffffffffffffffffffffffffffffffffff168173ffffffffffffffffffffffffffffffffffffffff161415610c8c576040517f08c379a0000000000000000000000000000000000000000000000000000000008152600401610c8390613a50565b60405180910390fd5b80915050919050565b60008073ffffffffffffffffffffffffffffffffffffffff168273ffffffffffffffffffffffffffffffffffffffff161415610d06576040517f08c379a0000000000000000000000000000000000000000000000000000000008152600401610cfd90613a30565b60405180910390fd5b600360008373ffffffffffffffffffffffffffffffffffffffff1673ffffffffffffffffffffffffffffffffffffffff168152602001908152602001600020549050919050565b60006007600084815260200190815260200160002060000160008373ffffffffffffffffffffffffffffffffffffffff1673ffffffffffffffffffffffffffffffffffffffff16815260200190815260200160002060009054906101000a900460ff16905092915050565b606060018054610dc790613f49565b80601f0160208091040260200160405190810160405280929190818152602001828054610df390613f49565b8015610e405780601f10610e1557610100808354040283529160200191610e40565b820191906000526020600020905b815481529060010190602001808311610e2357829003601f168201915b5050505050905090565b6000801b81565b610e63610e5c61182a565b8383611ba0565b5050565b610e78610e7261182a565b836118eb565b610eb7576040517f08c379a0000000000000000000000000000000000000000000000000000000008152600401610eae90613b90565b60405180910390fd5b610ec384848484611d0d565b50505050565b6060610ed482611297565b610f13576040517f08c379a0000000000000000000000000000000000000000000000000000000008152600401610f0a90613af0565b60405180910390fd5b6000600660008481526020019081526020016000208054610f3390613f49565b80601f0160208091040260200160405190810160405280929190818152602001828054610f5f90613f49565b8015610fac5780601f10610f8157610100808354040283529160200191610fac565b820191906000526020600020905b815481529060010190602001808311610f8f57829003601f168201915b505050505090506000610fbd611d69565b9050600081511415610fd3578192505050611016565b600082511115611008578082604051602001610ff092919061369f565b60405160208183030381529060405292505050611016565b61101184611d80565b925050505b919050565b7f9f2df0fed2c77648de5860a4cc508cd0818c85b8b8a1ab4ceeef8d981c8956a681565b611048826109b0565b611051816119c9565b61105b8383611abe565b505050565b6000600860003373ffffffffffffffffffffffffffffffffffffffff1673ffffffffffffffffffffffffffffffffffffffff16815260200190815260200160002054905090565b6000600560008473ffffffffffffffffffffffffffffffffffffffff1673ffffffffffffffffffffffffffffffffffffffff16815260200190815260200160002060008373ffffffffffffffffffffffffffffffffffffffff1673ffffffffffffffffffffffffffffffffffffffff16815260200190815260200160002060009054906101000a900460ff16905092915050565b60007f80ac58cd000000000000000000000000000000000000000000000000000000007bffffffffffffffffffffffffffffffffffffffffffffffffffffffff1916827bffffffffffffffffffffffffffffffffffffffffffffffffffffffff1916148061120657507f5b5e139f000000000000000000000000000000000000000000000000000000007bffffffffffffffffffffffffffffffffffffffffffffffffffffffff1916827bffffffffffffffffffffffffffffffffffffffffffffffffffffffff1916145b80611216575061121582611e27565b5b9050919050565b60007f7965db0b000000000000000000000000000000000000000000000000000000007bffffffffffffffffffffffffffffffffffffffffffffffffffffffff1916827bffffffffffffffffffffffffffffffffffffffffffffffffffffffff19161480611290575061128f8261113b565b5b9050919050565b60008073ffffffffffffffffffffffffffffffffffffffff166002600084815260200190815260200160002060009054906101000a900473ffffffffffffffffffffffffffffffffffffffff1673ffffffffffffffffffffffffffffffffffffffff1614159050919050565b60008061130f83611e91565b905061136d818480606001906113259190613beb565b8080601f016020809104026020016040519081016040528093929190818152602001838380828437600081840152601f19601f82011690508083019250505050505050611f1c565b915050919050565b600073ffffffffffffffffffffffffffffffffffffffff168273ffffffffffffffffffffffffffffffffffffffff1614156113e5576040517f08c379a00000000000000000000000000000000000000000000000000000000081526004016113dc90613ad0565b60405180910390fd5b6113ee81611297565b1561142e576040517f08c379a000000000000000000000000000000000000000000000000000000000815260040161142590613970565b60405180910390fd5b61143a60008383611f43565b6001600360008473ffffffffffffffffffffffffffffffffffffffff1673ffffffffffffffffffffffffffffffffffffffff168152602001908152602001600020600082825461148a9190613d3d565b92505081905550816002600083815260200190815260200160002060006101000a81548173ffffffffffffffffffffffffffffffffffffffff021916908373ffffffffffffffffffffffffffffffffffffffff160217905550808273ffffffffffffffffffffffffffffffffffffffff16600073ffffffffffffffffffffffffffffffffffffffff167fddf252ad1be2c89b69c2b068fc378daa952ba7f163c4a11628f55a4df523b3ef60405160405180910390a461154b60008383611f48565b5050565b61155882611297565b611597576040517f08c379a000000000000000000000000000000000000000000000000000000000815260040161158e90613a70565b60405180910390fd5b806006600084815260200190815260200160002090805190602001906115be929190612d2c565b505050565b8273ffffffffffffffffffffffffffffffffffffffff166115e382610be3565b73ffffffffffffffffffffffffffffffffffffffff1614611639576040517f08c379a000000000000000000000000000000000000000000000000000000000815260040161163090613950565b60405180910390fd5b600073ffffffffffffffffffffffffffffffffffffffff168273ffffffffffffffffffffffffffffffffffffffff1614156116a9576040517f08c379a00000000000000000000000000000000000000000000000000000000081526004016116a090613990565b60405180910390fd5b6116b4838383611f43565b6116bf600082611832565b6001600360008573ffffffffffffffffffffffffffffffffffffffff1673ffffffffffffffffffffffffffffffffffffffff168152602001908152602001600020600082825461170f9190613e1e565b925050819055506001600360008473ffffffffffffffffffffffffffffffffffffffff1673ffffffffffffffffffffffffffffffffffffffff16815260200190815260200160002060008282546117669190613d3d565b92505081905550816002600083815260200190815260200160002060006101000a81548173ffffffffffffffffffffffffffffffffffffffff021916908373ffffffffffffffffffffffffffffffffffffffff160217905550808273ffffffffffffffffffffffffffffffffffffffff168473ffffffffffffffffffffffffffffffffffffffff167fddf252ad1be2c89b69c2b068fc378daa952ba7f163c4a11628f55a4df523b3ef60405160405180910390a4611825838383611f48565b505050565b600033905090565b816004600083815260200190815260200160002060006101000a81548173ffffffffffffffffffffffffffffffffffffffff021916908373ffffffffffffffffffffffffffffffffffffffff160217905550808273ffffffffffffffffffffffffffffffffffffffff166118a583610be3565b73ffffffffffffffffffffffffffffffffffffffff167f8c5be1e5ebec7d5bd14f71427d1e84f3dd0314c0f7b2291e5b200ac8c7c3b92560405160405180910390a45050565b60006118f682611297565b611935576040517f08c379a000000000000000000000000000000000000000000000000000000000815260040161192c906139f0565b60405180910390fd5b600061194083610be3565b90508073ffffffffffffffffffffffffffffffffffffffff168473ffffffffffffffffffffffffffffffffffffffff161480611982575061198181856110a7565b5b806119c057508373ffffffffffffffffffffffffffffffffffffffff166119a88461067d565b73ffffffffffffffffffffffffffffffffffffffff16145b91505092915050565b6119da816119d561182a565b611f4d565b50565b6119e78282610d4d565b611aba5760016007600084815260200190815260200160002060000160008373ffffffffffffffffffffffffffffffffffffffff1673ffffffffffffffffffffffffffffffffffffffff16815260200190815260200160002060006101000a81548160ff021916908315150217905550611a5f61182a565b73ffffffffffffffffffffffffffffffffffffffff168173ffffffffffffffffffffffffffffffffffffffff16837f2f8788117e7eff1d82e926ec794901d17c78024a50270940304540a733656f0d60405160405180910390a45b5050565b611ac88282610d4d565b15611b9c5760006007600084815260200190815260200160002060000160008373ffffffffffffffffffffffffffffffffffffffff1673ffffffffffffffffffffffffffffffffffffffff16815260200190815260200160002060006101000a81548160ff021916908315150217905550611b4161182a565b73ffffffffffffffffffffffffffffffffffffffff168173ffffffffffffffffffffffffffffffffffffffff16837ff6391f5c32d9c69d2a47ea670b442974b53935d1edc7fd64eb21e047a839171b60405160405180910390a45b5050565b8173ffffffffffffffffffffffffffffffffffffffff168373ffffffffffffffffffffffffffffffffffffffff161415611c0f576040517f08c379a0000000000000000000000000000000000000000000000000000000008152600401611c06906139b0565b60405180910390fd5b80600560008573ffffffffffffffffffffffffffffffffffffffff1673ffffffffffffffffffffffffffffffffffffffff16815260200190815260200160002060008473ffffffffffffffffffffffffffffffffffffffff1673ffffffffffffffffffffffffffffffffffffffff16815260200190815260200160002060006101000a81548160ff0219169083151502179055508173ffffffffffffffffffffffffffffffffffffffff168373ffffffffffffffffffffffffffffffffffffffff167f17307eab39ab6107e8899845ad3d59bd9653f200f220920489ca2b5937696c3183604051611d00919061379b565b60405180910390a3505050565b611d188484846115c3565b611d2484848484611fea565b611d63576040517f08c379a0000000000000000000000000000000000000000000000000000000008152600401611d5a90613930565b60405180910390fd5b50505050565b606060405180602001604052806000815250905090565b6060611d8b82611297565b611dca576040517f08c379a0000000000000000000000000000000000000000000000000000000008152600401611dc190613b30565b60405180910390fd5b6000611dd4611d69565b90506000815111611df45760405180602001604052806000815250611e1f565b80611dfe84612181565b604051602001611e0f92919061369f565b6040516020818303038152906040525b915050919050565b60007f01ffc9a7000000000000000000000000000000000000000000000000000000007bffffffffffffffffffffffffffffffffffffffffffffffffffffffff1916827bffffffffffffffffffffffffffffffffffffffffffffffffffffffff1916149050919050565b6000611f157f6316f9ddd4d59a364f3b95c26bab9d392c3380ace0fff15e91ed76f0d8bcd15a83600001358460200135858060400190611ed19190613c42565b604051611edf929190613686565b6040518091039020604051602001611efa9493929190613824565b6040516020818303038152906040528051906020012061232e565b9050919050565b6000806000611f2b8585612348565b91509150611f38816123cb565b819250505092915050565b505050565b505050565b611f578282610d4d565b611fe657611f7c8173ffffffffffffffffffffffffffffffffffffffff16601461271c565b611f8a8360001c602061271c565b604051602001611f9b9291906136fa565b6040516020818303038152906040526040517f08c379a0000000000000000000000000000000000000000000000000000000008152600401611fdd91906138ae565b60405180910390fd5b5050565b600061200b8473ffffffffffffffffffffffffffffffffffffffff16612a16565b15612174578373ffffffffffffffffffffffffffffffffffffffff1663150b7a0261203461182a565b8786866040518563ffffffff1660e01b8152600401612056949392919061374f565b602060405180830381600087803b15801561207057600080fd5b505af19250505080156120a157506040513d601f19601f8201168201806040525081019061209e9190613159565b60015b612124573d80600081146120d1576040519150601f19603f3d011682016040523d82523d6000602084013e6120d6565b606091505b5060008151141561211c576040517f08c379a000000000000000000000000000000000000000000000000000000000815260040161211390613930565b60405180910390fd5b805181602001fd5b63150b7a0260e01b7bffffffffffffffffffffffffffffffffffffffffffffffffffffffff1916817bffffffffffffffffffffffffffffffffffffffffffffffffffffffff191614915050612179565b600190505b949350505050565b606060008214156121c9576040518060400160405280600181526020017f30000000000000000000000000000000000000000000000000000000000000008152509050612329565b600082905060005b600082146121fb5780806121e490613fac565b915050600a826121f49190613d93565b91506121d1565b60008167ffffffffffffffff81111561223d577f4e487b7100000000000000000000000000000000000000000000000000000000600052604160045260246000fd5b6040519080825280601f01601f19166020018201604052801561226f5781602001600182028036833780820191505090505b5090505b60008514612322576001826122889190613e1e565b9150600a856122979190613fff565b60306122a39190613d3d565b60f81b8183815181106122df577f4e487b7100000000000000000000000000000000000000000000000000000000600052603260045260246000fd5b60200101907effffffffffffffffffffffffffffffffffffffffffffffffffffffffffffff1916908160001a905350600a8561231b9190613d93565b9450612273565b8093505050505b919050565b600061234161233b612a39565b83612b53565b9050919050565b60008060418351141561238a5760008060006020860151925060408601519150606086015160001a905061237e87828585612b86565b945094505050506123c4565b6040835114156123bb5760008060208501519150604085015190506123b0868383612c93565b9350935050506123c4565b60006002915091505b9250929050565b60006004811115612405577f4e487b7100000000000000000000000000000000000000000000000000000000600052602160045260246000fd5b81600481111561243e577f4e487b7100000000000000000000000000000000000000000000000000000000600052602160045260246000fd5b141561244957612719565b60016004811115612483577f4e487b7100000000000000000000000000000000000000000000000000000000600052602160045260246000fd5b8160048111156124bc577f4e487b7100000000000000000000000000000000000000000000000000000000600052602160045260246000fd5b14156124fd576040517f08c379a00000000000000000000000000000000000000000000000000000000081526004016124f4906138d0565b60405180910390fd5b60026004811115612537577f4e487b7100000000000000000000000000000000000000000000000000000000600052602160045260246000fd5b816004811115612570577f4e487b7100000000000000000000000000000000000000000000000000000000600052602160045260246000fd5b14156125b1576040517f08c379a00000000000000000000000000000000000000000000000000000000081526004016125a890613910565b60405180910390fd5b600360048111156125eb577f4e487b7100000000000000000000000000000000000000000000000000000000600052602160045260246000fd5b816004811115612624577f4e487b7100000000000000000000000000000000000000000000000000000000600052602160045260246000fd5b1415612665576040517f08c379a000000000000000000000000000000000000000000000000000000000815260040161265c906139d0565b60405180910390fd5b60048081111561269e577f4e487b7100000000000000000000000000000000000000000000000000000000600052602160045260246000fd5b8160048111156126d7577f4e487b7100000000000000000000000000000000000000000000000000000000600052602160045260246000fd5b1415612718576040517f08c379a000000000000000000000000000000000000000000000000000000000815260040161270f90613a90565b60405180910390fd5b5b50565b60606000600283600261272f9190613dc4565b6127399190613d3d565b67ffffffffffffffff811115612778577f4e487b7100000000000000000000000000000000000000000000000000000000600052604160045260246000fd5b6040519080825280601f01601f1916602001820160405280156127aa5781602001600182028036833780820191505090505b5090507f300000000000000000000000000000000000000000000000000000000000000081600081518110612808577f4e487b7100000000000000000000000000000000000000000000000000000000600052603260045260246000fd5b60200101907effffffffffffffffffffffffffffffffffffffffffffffffffffffffffffff1916908160001a9053507f780000000000000000000000000000000000000000000000000000000000000081600181518110612892577f4e487b7100000000000000000000000000000000000000000000000000000000600052603260045260246000fd5b60200101907effffffffffffffffffffffffffffffffffffffffffffffffffffffffffffff1916908160001a905350600060018460026128d29190613dc4565b6128dc9190613d3d565b90505b60018111156129c8577f3031323334353637383961626364656600000000000000000000000000000000600f861660108110612944577f4e487b7100000000000000000000000000000000000000000000000000000000600052603260045260246000fd5b1a60f81b828281518110612981577f4e487b7100000000000000000000000000000000000000000000000000000000600052603260045260246000fd5b60200101907effffffffffffffffffffffffffffffffffffffffffffffffffffffffffffff1916908160001a905350600485901c9450806129c190613f1f565b90506128df565b5060008414612a0c576040517f08c379a0000000000000000000000000000000000000000000000000000000008152600401612a03906138f0565b60405180910390fd5b8091505092915050565b6000808273ffffffffffffffffffffffffffffffffffffffff163b119050919050565b60007f000000000000000000000000000000000000000000000000000000000000000073ffffffffffffffffffffffffffffffffffffffff163073ffffffffffffffffffffffffffffffffffffffff16148015612ab557507f000000000000000000000000000000000000000000000000000000000000000046145b15612ae2577f00000000000000000000000000000000000000000000000000000000000000009050612b50565b612b4d7f00000000000000000000000000000000000000000000000000000000000000007f00000000000000000000000000000000000000000000000000000000000000007f0000000000000000000000000000000000000000000000000000000000000000612cf2565b90505b90565b60008282604051602001612b689291906136c3565b60405160208183030381529060405280519060200120905092915050565b6000807f7fffffffffffffffffffffffffffffff5d576e7357a4501ddfe92f46681b20a08360001c1115612bc1576000600391509150612c8a565b601b8560ff1614158015612bd95750601c8560ff1614155b15612beb576000600491509150612c8a565b600060018787878760405160008152602001604052604051612c109493929190613869565b6020604051602081039080840390855afa158015612c32573d6000803e3d6000fd5b505050602060405103519050600073ffffffffffffffffffffffffffffffffffffffff168173ffffffffffffffffffffffffffffffffffffffff161415612c8157600060019250925050612c8a565b80600092509250505b94509492505050565b60008060007f7fffffffffffffffffffffffffffffffffffffffffffffffffffffffffffffff60001b841690506000601b60ff8660001c901c612cd69190613d3d565b9050612ce487828885612b86565b935093505050935093915050565b60008383834630604051602001612d0d9594939291906137d1565b6040516020818303038152906040528051906020012090509392505050565b828054612d3890613f49565b90600052602060002090601f016020900481019282612d5a5760008555612da1565b82601f10612d7357805160ff1916838001178555612da1565b82800160010185558215612da1579182015b82811115612da0578251825591602001919060010190612d85565b5b509050612dae9190612db2565b5090565b5b80821115612dcb576000816000905550600101612db3565b5090565b6000612de2612ddd84613cbe565b613c99565b905082815260208101848484011115612dfa57600080fd5b612e05848285613edd565b509392505050565b600081359050612e1c816147d6565b92915050565b600081359050612e31816147ed565b92915050565b600081359050612e4681614804565b92915050565b600081359050612e5b8161481b565b92915050565b600081519050612e708161481b565b92915050565b600082601f830112612e8757600080fd5b8135612e97848260208601612dcf565b91505092915050565b600060808284031215612eb257600080fd5b81905092915050565b600081359050612eca81614832565b92915050565b600060208284031215612ee257600080fd5b6000612ef084828501612e0d565b91505092915050565b60008060408385031215612f0c57600080fd5b6000612f1a85828601612e0d565b9250506020612f2b85828601612e0d565b9150509250929050565b600080600060608486031215612f4a57600080fd5b6000612f5886828701612e0d565b9350506020612f6986828701612e0d565b9250506040612f7a86828701612ebb565b9150509250925092565b60008060008060808587031215612f9a57600080fd5b6000612fa887828801612e0d565b9450506020612fb987828801612e0d565b9350506040612fca87828801612ebb565b925050606085013567ffffffffffffffff811115612fe757600080fd5b612ff387828801612e76565b91505092959194509250565b6000806040838503121561301257600080fd5b600061302085828601612e0d565b925050602061303185828601612e22565b9150509250929050565b6000806040838503121561304e57600080fd5b600061305c85828601612e0d565b925050602083013567ffffffffffffffff81111561307957600080fd5b61308585828601612ea0565b9150509250929050565b600080604083850312156130a257600080fd5b60006130b085828601612e0d565b92505060206130c185828601612ebb565b9150509250929050565b6000602082840312156130dd57600080fd5b60006130eb84828501612e37565b91505092915050565b6000806040838503121561310757600080fd5b600061311585828601612e37565b925050602061312685828601612e0d565b9150509250929050565b60006020828403121561314257600080fd5b600061315084828501612e4c565b91505092915050565b60006020828403121561316b57600080fd5b600061317984828501612e61565b91505092915050565b60006020828403121561319457600080fd5b60006131a284828501612ebb565b91505092915050565b6131b481613e52565b82525050565b6131c381613e64565b82525050565b6131d281613e70565b82525050565b6131e96131e482613e70565b613ff5565b82525050565b60006131fb8385613d16565b9350613208838584613edd565b82840190509392505050565b600061321f82613cef565b6132298185613d05565b9350613239818560208601613eec565b613242816140ec565b840191505092915050565b600061325882613cfa565b6132628185613d21565b9350613272818560208601613eec565b61327b816140ec565b840191505092915050565b600061329182613cfa565b61329b8185613d32565b93506132ab818560208601613eec565b80840191505092915050565b60006132c4601883613d21565b91506132cf826140fd565b602082019050919050565b60006132e7602083613d21565b91506132f282614126565b602082019050919050565b600061330a601f83613d21565b91506133158261414f565b602082019050919050565b600061332d603283613d21565b915061333882614178565b604082019050919050565b6000613350602583613d21565b915061335b826141c7565b604082019050919050565b6000613373601c83613d21565b915061337e82614216565b602082019050919050565b6000613396600283613d32565b91506133a18261423f565b600282019050919050565b60006133b9602483613d21565b91506133c482614268565b604082019050919050565b60006133dc601983613d21565b91506133e7826142b7565b602082019050919050565b60006133ff602283613d21565b915061340a826142e0565b604082019050919050565b6000613422602c83613d21565b915061342d8261432f565b604082019050919050565b6000613445603883613d21565b91506134508261437e565b604082019050919050565b6000613468602a83613d21565b9150613473826143cd565b604082019050919050565b600061348b602983613d21565b91506134968261441c565b604082019050919050565b60006134ae602e83613d21565b91506134b98261446b565b604082019050919050565b60006134d1602283613d21565b91506134dc826144ba565b604082019050919050565b60006134f4601c83613d21565b91506134ff82614509565b602082019050919050565b6000613517602083613d21565b915061352282614532565b602082019050919050565b600061353a603183613d21565b91506135458261455b565b604082019050919050565b600061355d602c83613d21565b9150613568826145aa565b604082019050919050565b6000613580602f83613d21565b915061358b826145f9565b604082019050919050565b60006135a3602483613d21565b91506135ae82614648565b604082019050919050565b60006135c6602183613d21565b91506135d182614697565b604082019050919050565b60006135e9603183613d21565b91506135f4826146e6565b604082019050919050565b600061360c601783613d32565b915061361782614735565b601782019050919050565b600061362f601183613d32565b915061363a8261475e565b601182019050919050565b6000613652602f83613d21565b915061365d82614787565b604082019050919050565b61367181613ec6565b82525050565b61368081613ed0565b82525050565b60006136938284866131ef565b91508190509392505050565b60006136ab8285613286565b91506136b78284613286565b91508190509392505050565b60006136ce82613389565b91506136da82856131d8565b6020820191506136ea82846131d8565b6020820191508190509392505050565b6000613705826135ff565b91506137118285613286565b915061371c82613622565b91506137288284613286565b91508190509392505050565b600060208201905061374960008301846131ab565b92915050565b600060808201905061376460008301876131ab565b61377160208301866131ab565b61377e6040830185613668565b81810360608301526137908184613214565b905095945050505050565b60006020820190506137b060008301846131ba565b92915050565b60006020820190506137cb60008301846131c9565b92915050565b600060a0820190506137e660008301886131c9565b6137f360208301876131c9565b61380060408301866131c9565b61380d6060830185613668565b61381a60808301846131ab565b9695505050505050565b600060808201905061383960008301876131c9565b6138466020830186613668565b6138536040830185613668565b61386060608301846131c9565b95945050505050565b600060808201905061387e60008301876131c9565b61388b6020830186613677565b61389860408301856131c9565b6138a560608301846131c9565b95945050505050565b600060208201905081810360008301526138c8818461324d565b905092915050565b600060208201905081810360008301526138e9816132b7565b9050919050565b60006020820190508181036000830152613909816132da565b9050919050565b60006020820190508181036000830152613929816132fd565b9050919050565b6000602082019050818103600083015261394981613320565b9050919050565b6000602082019050818103600083015261396981613343565b9050919050565b6000602082019050818103600083015261398981613366565b9050919050565b600060208201905081810360008301526139a9816133ac565b9050919050565b600060208201905081810360008301526139c9816133cf565b9050919050565b600060208201905081810360008301526139e9816133f2565b9050919050565b60006020820190508181036000830152613a0981613415565b9050919050565b60006020820190508181036000830152613a2981613438565b9050919050565b60006020820190508181036000830152613a498161345b565b9050919050565b60006020820190508181036000830152613a698161347e565b9050919050565b60006020820190508181036000830152613a89816134a1565b9050919050565b60006020820190508181036000830152613aa9816134c4565b9050919050565b60006020820190508181036000830152613ac9816134e7565b9050919050565b60006020820190508181036000830152613ae98161350a565b9050919050565b60006020820190508181036000830152613b098161352d565b9050919050565b60006020820190508181036000830152613b2981613550565b9050919050565b60006020820190508181036000830152613b4981613573565b9050919050565b60006020820190508181036000830152613b6981613596565b9050919050565b60006020820190508181036000830152613b89816135b9565b9050919050565b60006020820190508181036000830152613ba9816135dc565b9050919050565b60006020820190508181036000830152613bc981613645565b9050919050565b6000602082019050613be56000830184613668565b92915050565b60008083356001602003843603038112613c0457600080fd5b80840192508235915067ffffffffffffffff821115613c2257600080fd5b602083019250600182023603831315613c3a57600080fd5b509250929050565b60008083356001602003843603038112613c5b57600080fd5b80840192508235915067ffffffffffffffff821115613c7957600080fd5b602083019250600182023603831315613c9157600080fd5b509250929050565b6000613ca3613cb4565b9050613caf8282613f7b565b919050565b6000604051905090565b600067ffffffffffffffff821115613cd957613cd86140bd565b5b613ce2826140ec565b9050602081019050919050565b600081519050919050565b600081519050919050565b600082825260208201905092915050565b600081905092915050565b600082825260208201905092915050565b600081905092915050565b6000613d4882613ec6565b9150613d5383613ec6565b9250827fffffffffffffffffffffffffffffffffffffffffffffffffffffffffffffffff03821115613d8857613d87614030565b5b828201905092915050565b6000613d9e82613ec6565b9150613da983613ec6565b925082613db957613db861405f565b5b828204905092915050565b6000613dcf82613ec6565b9150613dda83613ec6565b9250817fffffffffffffffffffffffffffffffffffffffffffffffffffffffffffffffff0483118215151615613e1357613e12614030565b5b828202905092915050565b6000613e2982613ec6565b9150613e3483613ec6565b925082821015613e4757613e46614030565b5b828203905092915050565b6000613e5d82613ea6565b9050919050565b60008115159050919050565b6000819050919050565b60007fffffffff0000000000000000000000000000000000000000000000000000000082169050919050565b600073ffffffffffffffffffffffffffffffffffffffff82169050919050565b6000819050919050565b600060ff82169050919050565b82818337600083830152505050565b60005b83811015613f0a578082015181840152602081019050613eef565b83811115613f19576000848401525b50505050565b6000613f2a82613ec6565b91506000821415613f3e57613f3d614030565b5b600182039050919050565b60006002820490506001821680613f6157607f821691505b60208210811415613f7557613f7461408e565b5b50919050565b613f84826140ec565b810181811067ffffffffffffffff82111715613fa357613fa26140bd565b5b80604052505050565b6000613fb782613ec6565b91507fffffffffffffffffffffffffffffffffffffffffffffffffffffffffffffffff821415613fea57613fe9614030565b5b600182019050919050565b6000819050919050565b600061400a82613ec6565b915061401583613ec6565b9250826140255761402461405f565b5b828206905092915050565b7f4e487b7100000000000000000000000000000000000000000000000000000000600052601160045260246000fd5b7f4e487b7100000000000000000000000000000000000000000000000000000000600052601260045260246000fd5b7f4e487b7100000000000000000000000000000000000000000000000000000000600052602260045260246000fd5b7f4e487b7100000000000000000000000000000000000000000000000000000000600052604160045260246000fd5b6000601f19601f8301169050919050565b7f45434453413a20696e76616c6964207369676e61747572650000000000000000600082015250565b7f537472696e67733a20686578206c656e67746820696e73756666696369656e74600082015250565b7f45434453413a20696e76616c6964207369676e6174757265206c656e67746800600082015250565b7f4552433732313a207472616e7366657220746f206e6f6e20455243373231526560008201527f63656976657220696d706c656d656e7465720000000000000000000000000000602082015250565b7f4552433732313a207472616e736665722066726f6d20696e636f72726563742060008201527f6f776e6572000000000000000000000000000000000000000000000000000000602082015250565b7f4552433732313a20746f6b656e20616c7265616479206d696e74656400000000600082015250565b7f1901000000000000000000000000000000000000000000000000000000000000600082015250565b7f4552433732313a207472616e7366657220746f20746865207a65726f2061646460008201527f7265737300000000000000000000000000000000000000000000000000000000602082015250565b7f4552433732313a20617070726f766520746f2063616c6c657200000000000000600082015250565b7f45434453413a20696e76616c6964207369676e6174757265202773272076616c60008201527f7565000000000000000000000000000000000000000000000000000000000000602082015250565b7f4552433732313a206f70657261746f7220717565727920666f72206e6f6e657860008201527f697374656e7420746f6b656e0000000000000000000000000000000000000000602082015250565b7f4552433732313a20617070726f76652063616c6c6572206973206e6f74206f7760008201527f6e6572206e6f7220617070726f76656420666f7220616c6c0000000000000000602082015250565b7f4552433732313a2062616c616e636520717565727920666f7220746865207a6560008201527f726f206164647265737300000000000000000000000000000000000000000000602082015250565b7f4552433732313a206f776e657220717565727920666f72206e6f6e657869737460008201527f656e7420746f6b656e0000000000000000000000000000000000000000000000602082015250565b7f45524337323155524953746f726167653a2055524920736574206f66206e6f6e60008201527f6578697374656e7420746f6b656e000000000000000000000000000000000000602082015250565b7f45434453413a20696e76616c6964207369676e6174757265202776272076616c60008201527f7565000000000000000000000000000000000000000000000000000000000000602082015250565b7f496e73756666696369656e742066756e647320746f2072656465656d00000000600082015250565b7f4552433732313a206d696e7420746f20746865207a65726f2061646472657373600082015250565b7f45524337323155524953746f726167653a2055524920717565727920666f722060008201527f6e6f6e6578697374656e7420746f6b656e000000000000000000000000000000602082015250565b7f4552433732313a20617070726f76656420717565727920666f72206e6f6e657860008201527f697374656e7420746f6b656e0000000000000000000000000000000000000000602082015250565b7f4552433732314d657461646174613a2055524920717565727920666f72206e6f60008201527f6e6578697374656e7420746f6b656e0000000000000000000000000000000000602082015250565b7f4f6e6c7920617574686f72697a6564206d696e746572732063616e207769746860008201527f6472617700000000000000000000000000000000000000000000000000000000602082015250565b7f4552433732313a20617070726f76616c20746f2063757272656e74206f776e6560008201527f7200000000000000000000000000000000000000000000000000000000000000602082015250565b7f4552433732313a207472616e736665722063616c6c6572206973206e6f74206f60008201527f776e6572206e6f7220617070726f766564000000000000000000000000000000602082015250565b7f416363657373436f6e74726f6c3a206163636f756e7420000000000000000000600082015250565b7f206973206d697373696e6720726f6c6520000000000000000000000000000000600082015250565b7f416363657373436f6e74726f6c3a2063616e206f6e6c792072656e6f756e636560008201527f20726f6c657320666f722073656c660000000000000000000000000000000000602082015250565b6147df81613e52565b81146147ea57600080fd5b50565b6147f681613e64565b811461480157600080fd5b50565b61480d81613e70565b811461481857600080fd5b50565b61482481613e7a565b811461482f57600080fd5b50565b61483b81613ec6565b811461484657600080fd5b5056fea26469706673582212206d6e53bc1804cc4f90c3cdc27b2c63b7388073aa8b30ddc10309f5c186eec4dc64736f6c63430008040033",
  "linkReferences": {},
  "deployedLinkReferences": {}
}