{
  "_format": "hh-sol-artifact-1",
  "contractName": "LazyMarketplace",
  "sourceName": "src/backend/contracts/LazyMarketplace.sol",
  "abi": [
    {
      "inputs": [
        {
          "internalType": "uint256",
          "name": "_feePercent",
          "type": "uint256"
        }
      ],
      "stateMutability": "nonpayable",
      "type": "constructor"
    },
    {
      "anonymous": false,
      "inputs": [
        {
          "indexed": false,
          "internalType": "uint256",
          "name": "tokenId",
          "type": "uint256"
        },
        {
          "indexed": false,
          "internalType": "uint256",
          "name": "price",
          "type": "uint256"
        },
        {
          "indexed": true,
          "internalType": "address",
          "name": "seller",
          "type": "address"
        },
        {
          "indexed": true,
          "internalType": "address",
          "name": "buyer",
          "type": "address"
        }
      ],
      "name": "Bought",
      "type": "event"
    },
    {
      "inputs": [],
      "name": "feeAccount",
      "outputs": [
        {
          "internalType": "address payable",
          "name": "",
          "type": "address"
        }
      ],
      "stateMutability": "view",
      "type": "function"
    },
    {
      "inputs": [],
      "name": "feePercent",
      "outputs": [
        {
          "internalType": "uint256",
          "name": "",
          "type": "uint256"
        }
      ],
      "stateMutability": "view",
      "type": "function"
    },
    {
      "inputs": [],
      "name": "getChainID",
      "outputs": [
        {
          "internalType": "uint256",
          "name": "",
          "type": "uint256"
        }
      ],
      "stateMutability": "view",
      "type": "function"
    },
    {
      "inputs": [],
      "name": "itemCount",
      "outputs": [
        {
          "internalType": "uint256",
          "name": "",
          "type": "uint256"
        }
      ],
      "stateMutability": "view",
      "type": "function"
    },
    {
      "inputs": [
        {
          "components": [
            {
              "internalType": "string",
              "name": "owner",
              "type": "string"
            },
            {
              "internalType": "string",
              "name": "nftTokenId",
              "type": "string"
            },
            {
              "internalType": "string",
              "name": "status",
              "type": "string"
            },
            {
              "internalType": "string",
              "name": "listedType",
              "type": "string"
            },
            {
              "internalType": "string",
              "name": "price",
              "type": "string"
            },
            {
              "internalType": "string",
              "name": "startingPrice",
              "type": "string"
            },
            {
              "internalType": "string",
              "name": "endPrice",
              "type": "string"
            },
            {
              "internalType": "string",
              "name": "duration",
              "type": "string"
            },
            {
              "internalType": "bytes",
              "name": "signature",
              "type": "bytes"
            }
          ],
          "internalType": "struct LazyMarketplace.NFTItemVoucher",
          "name": "voucher",
          "type": "tuple"
        },
        {
          "internalType": "uint256",
          "name": "price",
          "type": "uint256"
        },
        {
          "internalType": "address",
          "name": "nft",
          "type": "address"
        },
        {
          "internalType": "uint256",
          "name": "nftTokenId",
          "type": "uint256"
        }
      ],
      "name": "purchaseNFTItem",
      "outputs": [],
      "stateMutability": "payable",
      "type": "function"
    }
  ],
  "bytecode": "0x6101806040523480156200001257600080fd5b5060405162001a9838038062001a988339818101604052810190620000389190620001fc565b6040518060400160405280600f81526020017f4c617a794e46542d566f756368657200000000000000000000000000000000008152506040518060400160405280600181526020017f310000000000000000000000000000000000000000000000000000000000000081525060008280519060200120905060008280519060200120905060007f8b73c3c69bb8fe3d512ecc4cf759cc79239f7b179b0ffacaa9a75d522b39400f90508260e081815250508161010081815250504660a081815250506200010d818484620001a960201b60201c565b608081815250503073ffffffffffffffffffffffffffffffffffffffff1660c08173ffffffffffffffffffffffffffffffffffffffff1660601b81525050806101208181525050505050505060016000819055503373ffffffffffffffffffffffffffffffffffffffff166101408173ffffffffffffffffffffffffffffffffffffffff1660601b81525050806101608181525050506200031a565b60008383834630604051602001620001c69594939291906200025b565b6040516020818303038152906040528051906020012090509392505050565b600081519050620001f68162000300565b92915050565b6000602082840312156200020f57600080fd5b60006200021f84828501620001e5565b91505092915050565b6200023381620002b8565b82525050565b6200024481620002cc565b82525050565b6200025581620002f6565b82525050565b600060a08201905062000272600083018862000239565b62000281602083018762000239565b62000290604083018662000239565b6200029f60608301856200024a565b620002ae608083018462000228565b9695505050505050565b6000620002c582620002d6565b9050919050565b6000819050919050565b600073ffffffffffffffffffffffffffffffffffffffff82169050919050565b6000819050919050565b6200030b81620002f6565b81146200031757600080fd5b50565b60805160a05160c05160601c60e05161010051610120516101405160601c6101605161170462000394600039600081816101f801526103cf015260008181610126015261028101526000610ab701526000610af901526000610ad801526000610a0d01526000610a6301526000610a8c01526117046000f3fe60806040526004361061004a5760003560e01c8063564b81ef1461004f57806365e17c9d1461007a5780636bfb0d01146100a55780637b28c9a3146100d05780637fd6f15c146100ec575b600080fd5b34801561005b57600080fd5b50610064610117565b60405161007191906111cf565b60405180910390f35b34801561008657600080fd5b5061008f610124565b60405161009c9190610f98565b60405180910390f35b3480156100b157600080fd5b506100ba610148565b6040516100c791906111cf565b60405180910390f35b6100ea60048036038101906100e59190610d42565b61014e565b005b3480156100f857600080fd5b506101016103cd565b60405161010e91906111cf565b60405180910390f35b6000804690508091505090565b7f000000000000000000000000000000000000000000000000000000000000000081565b60015481565b60026000541415610194576040517f08c379a000000000000000000000000000000000000000000000000000000000815260040161018b906111af565b60405180910390fd5b600260008190555060006101a7856103f1565b9050833410156101ec576040517f08c379a00000000000000000000000000000000000000000000000000000000081526004016101e39061118f565b60405180910390fd5b600083905060006064867f0000000000000000000000000000000000000000000000000000000000000000610221919061136f565b61022b919061133e565b90508273ffffffffffffffffffffffffffffffffffffffff166108fc828861025391906113c9565b9081150290604051600060405180830381858888f1935050505015801561027e573d6000803e3d6000fd5b507f000000000000000000000000000000000000000000000000000000000000000073ffffffffffffffffffffffffffffffffffffffff166108fc829081150290604051600060405180830381858888f193505050501580156102e5573d6000803e3d6000fd5b508173ffffffffffffffffffffffffffffffffffffffff166323b872dd8433876040518463ffffffff1660e01b815260040161032393929190610fb3565b600060405180830381600087803b15801561033d57600080fd5b505af1158015610351573d6000803e3d6000fd5b505050503373ffffffffffffffffffffffffffffffffffffffff168373ffffffffffffffffffffffffffffffffffffffff167f4ebd6ef39c1235e69ba7dedf24ad43bdeb57deb289d98473668070d6ca9b685e86896040516103b49291906111ea565b60405180910390a3505050600160008190555050505050565b7f000000000000000000000000000000000000000000000000000000000000000081565b6000806103fd83610464565b905061045c81848061010001906104149190611213565b8080601f016020809104026020016040519081016040528093929190818152602001838380828437600081840152601f19601f820116905080830192505050505050506105f4565b915050919050565b60006105ed7f0bd3fec8a863dd84a4bb7e9fc9ddd07ba858b29584b2b5078f6a22a0b9149dfa83806000019061049a919061126a565b6040516104a8929190610f48565b60405180910390208480602001906104c0919061126a565b6040516104ce929190610f48565b60405180910390208580604001906104e6919061126a565b6040516104f4929190610f48565b604051809103902086806060019061050c919061126a565b60405161051a929190610f48565b6040518091039020878060800190610532919061126a565b604051610540929190610f48565b6040518091039020888060a00190610558919061126a565b604051610566929190610f48565b6040518091039020898060c0019061057e919061126a565b60405161058c929190610f48565b60405180910390208a8060e001906105a4919061126a565b6040516105b2929190610f48565b60405180910390206040516020016105d299989796959493929190610fea565b6040516020818303038152906040528051906020012061061b565b9050919050565b60008060006106038585610635565b91509150610610816106b8565b819250505092915050565b600061062e610628610a09565b83610b23565b9050919050565b6000806041835114156106775760008060006020860151925060408601519150606086015160001a905061066b87828585610b56565b945094505050506106b1565b6040835114156106a857600080602085015191506040850151905061069d868383610c63565b9350935050506106b1565b60006002915091505b9250929050565b600060048111156106f2577f4e487b7100000000000000000000000000000000000000000000000000000000600052602160045260246000fd5b81600481111561072b577f4e487b7100000000000000000000000000000000000000000000000000000000600052602160045260246000fd5b141561073657610a06565b60016004811115610770577f4e487b7100000000000000000000000000000000000000000000000000000000600052602160045260246000fd5b8160048111156107a9577f4e487b7100000000000000000000000000000000000000000000000000000000600052602160045260246000fd5b14156107ea576040517f08c379a00000000000000000000000000000000000000000000000000000000081526004016107e19061110f565b60405180910390fd5b60026004811115610824577f4e487b7100000000000000000000000000000000000000000000000000000000600052602160045260246000fd5b81600481111561085d577f4e487b7100000000000000000000000000000000000000000000000000000000600052602160045260246000fd5b141561089e576040517f08c379a00000000000000000000000000000000000000000000000000000000081526004016108959061112f565b60405180910390fd5b600360048111156108d8577f4e487b7100000000000000000000000000000000000000000000000000000000600052602160045260246000fd5b816004811115610911577f4e487b7100000000000000000000000000000000000000000000000000000000600052602160045260246000fd5b1415610952576040517f08c379a00000000000000000000000000000000000000000000000000000000081526004016109499061114f565b60405180910390fd5b60048081111561098b577f4e487b7100000000000000000000000000000000000000000000000000000000600052602160045260246000fd5b8160048111156109c4577f4e487b7100000000000000000000000000000000000000000000000000000000600052602160045260246000fd5b1415610a05576040517f08c379a00000000000000000000000000000000000000000000000000000000081526004016109fc9061116f565b60405180910390fd5b5b50565b60007f000000000000000000000000000000000000000000000000000000000000000073ffffffffffffffffffffffffffffffffffffffff163073ffffffffffffffffffffffffffffffffffffffff16148015610a8557507f000000000000000000000000000000000000000000000000000000000000000046145b15610ab2577f00000000000000000000000000000000000000000000000000000000000000009050610b20565b610b1d7f00000000000000000000000000000000000000000000000000000000000000007f00000000000000000000000000000000000000000000000000000000000000007f0000000000000000000000000000000000000000000000000000000000000000610cc2565b90505b90565b60008282604051602001610b38929190610f61565b60405160208183030381529060405280519060200120905092915050565b6000807f7fffffffffffffffffffffffffffffff5d576e7357a4501ddfe92f46681b20a08360001c1115610b91576000600391509150610c5a565b601b8560ff1614158015610ba95750601c8560ff1614155b15610bbb576000600491509150610c5a565b600060018787878760405160008152602001604052604051610be094939291906110ca565b6020604051602081039080840390855afa158015610c02573d6000803e3d6000fd5b505050602060405103519050600073ffffffffffffffffffffffffffffffffffffffff168173ffffffffffffffffffffffffffffffffffffffff161415610c5157600060019250925050610c5a565b80600092509250505b94509492505050565b60008060007f7fffffffffffffffffffffffffffffffffffffffffffffffffffffffffffffff60001b841690506000601b60ff8660001c901c610ca691906112e8565b9050610cb487828885610b56565b935093505050935093915050565b60008383834630604051602001610cdd959493929190611077565b6040516020818303038152906040528051906020012090509392505050565b600081359050610d0b816116a0565b92915050565b60006101208284031215610d2457600080fd5b81905092915050565b600081359050610d3c816116b7565b92915050565b60008060008060808587031215610d5857600080fd5b600085013567ffffffffffffffff811115610d7257600080fd5b610d7e87828801610d11565b9450506020610d8f87828801610d2d565b9350506040610da087828801610cfc565b9250506060610db187828801610d2d565b91505092959194509250565b610dc681611462565b82525050565b610dd58161140f565b82525050565b610de4816113fd565b82525050565b610df381611421565b82525050565b610e0a610e0582611421565b6114a7565b82525050565b6000610e1c83856112c1565b9350610e29838584611498565b82840190509392505050565b6000610e426018836112cc565b9150610e4d8261150f565b602082019050919050565b6000610e65601f836112cc565b9150610e7082611538565b602082019050919050565b6000610e886002836112dd565b9150610e9382611561565b600282019050919050565b6000610eab6022836112cc565b9150610eb68261158a565b604082019050919050565b6000610ece6022836112cc565b9150610ed9826115d9565b604082019050919050565b6000610ef16031836112cc565b9150610efc82611628565b604082019050919050565b6000610f14601f836112cc565b9150610f1f82611677565b602082019050919050565b610f338161144b565b82525050565b610f4281611455565b82525050565b6000610f55828486610e10565b91508190509392505050565b6000610f6c82610e7b565b9150610f788285610df9565b602082019150610f888284610df9565b6020820191508190509392505050565b6000602082019050610fad6000830184610dcc565b92915050565b6000606082019050610fc86000830186610dbd565b610fd56020830185610ddb565b610fe26040830184610f2a565b949350505050565b600061012082019050611000600083018c610dea565b61100d602083018b610dea565b61101a604083018a610dea565b6110276060830189610dea565b6110346080830188610dea565b61104160a0830187610dea565b61104e60c0830186610dea565b61105b60e0830185610dea565b611069610100830184610dea565b9a9950505050505050505050565b600060a08201905061108c6000830188610dea565b6110996020830187610dea565b6110a66040830186610dea565b6110b36060830185610f2a565b6110c06080830184610ddb565b9695505050505050565b60006080820190506110df6000830187610dea565b6110ec6020830186610f39565b6110f96040830185610dea565b6111066060830184610dea565b95945050505050565b6000602082019050818103600083015261112881610e35565b9050919050565b6000602082019050818103600083015261114881610e58565b9050919050565b6000602082019050818103600083015261116881610e9e565b9050919050565b6000602082019050818103600083015261118881610ec1565b9050919050565b600060208201905081810360008301526111a881610ee4565b9050919050565b600060208201905081810360008301526111c881610f07565b9050919050565b60006020820190506111e46000830184610f2a565b92915050565b60006040820190506111ff6000830185610f2a565b61120c6020830184610f2a565b9392505050565b6000808335600160200384360303811261122c57600080fd5b80840192508235915067ffffffffffffffff82111561124a57600080fd5b60208301925060018202360383131561126257600080fd5b509250929050565b6000808335600160200384360303811261128357600080fd5b80840192508235915067ffffffffffffffff8211156112a157600080fd5b6020830192506001820236038313156112b957600080fd5b509250929050565b600081905092915050565b600082825260208201905092915050565b600081905092915050565b60006112f38261144b565b91506112fe8361144b565b9250827fffffffffffffffffffffffffffffffffffffffffffffffffffffffffffffffff03821115611333576113326114b1565b5b828201905092915050565b60006113498261144b565b91506113548361144b565b925082611364576113636114e0565b5b828204905092915050565b600061137a8261144b565b91506113858361144b565b9250817fffffffffffffffffffffffffffffffffffffffffffffffffffffffffffffffff04831182151516156113be576113bd6114b1565b5b828202905092915050565b60006113d48261144b565b91506113df8361144b565b9250828210156113f2576113f16114b1565b5b828203905092915050565b60006114088261142b565b9050919050565b600061141a8261142b565b9050919050565b6000819050919050565b600073ffffffffffffffffffffffffffffffffffffffff82169050919050565b6000819050919050565b600060ff82169050919050565b600061146d82611474565b9050919050565b600061147f82611486565b9050919050565b60006114918261142b565b9050919050565b82818337600083830152505050565b6000819050919050565b7f4e487b7100000000000000000000000000000000000000000000000000000000600052601160045260246000fd5b7f4e487b7100000000000000000000000000000000000000000000000000000000600052601260045260246000fd5b7f45434453413a20696e76616c6964207369676e61747572650000000000000000600082015250565b7f45434453413a20696e76616c6964207369676e6174757265206c656e67746800600082015250565b7f1901000000000000000000000000000000000000000000000000000000000000600082015250565b7f45434453413a20696e76616c6964207369676e6174757265202773272076616c60008201527f7565000000000000000000000000000000000000000000000000000000000000602082015250565b7f45434453413a20696e76616c6964207369676e6174757265202776272076616c60008201527f7565000000000000000000000000000000000000000000000000000000000000602082015250565b7f6e6f7420656e6f7567682045544820746f20636f766572206974656d2070726960008201527f636520616e64206d61726b657420666565000000000000000000000000000000602082015250565b7f5265656e7472616e637947756172643a207265656e7472616e742063616c6c00600082015250565b6116a9816113fd565b81146116b457600080fd5b50565b6116c08161144b565b81146116cb57600080fd5b5056fea2646970667358221220fb3901f252566756f2ae42a9d21e07669e94e4d0b992526b1311d32e7903776564736f6c63430008040033",
  "linkReferences": {},
  "deployedLinkReferences": {}
}