{
  "_format": "hh-sol-artifact-1",
  "contractName": "LazyNFT",
  "sourceName": "src/backend/contracts/LazyNFT.sol",
  "abi": [
    {
      "inputs": [
        {
          "internalType": "address payable",
          "name": "minter",
          "type": "address"
        }
      ],
      "stateMutability": "nonpayable",
      "type": "constructor"
    },
    {
      "anonymous": false,
      "inputs": [
        {
          "indexed": true,
          "internalType": "address",
          "name": "owner",
          "type": "address"
        },
        {
          "indexed": true,
          "internalType": "address",
          "name": "approved",
          "type": "address"
        },
        {
          "indexed": true,
          "internalType": "uint256",
          "name": "tokenId",
          "type": "uint256"
        }
      ],
      "name": "Approval",
      "type": "event"
    },
    {
      "anonymous": false,
      "inputs": [
        {
          "indexed": true,
          "internalType": "address",
          "name": "owner",
          "type": "address"
        },
        {
          "indexed": true,
          "internalType": "address",
          "name": "operator",
          "type": "address"
        },
        {
          "indexed": false,
          "internalType": "bool",
          "name": "approved",
          "type": "bool"
        }
      ],
      "name": "ApprovalForAll",
      "type": "event"
    },
    {
      "anonymous": false,
      "inputs": [
        {
          "indexed": true,
          "internalType": "bytes32",
          "name": "role",
          "type": "bytes32"
        },
        {
          "indexed": true,
          "internalType": "bytes32",
          "name": "previousAdminRole",
          "type": "bytes32"
        },
        {
          "indexed": true,
          "internalType": "bytes32",
          "name": "newAdminRole",
          "type": "bytes32"
        }
      ],
      "name": "RoleAdminChanged",
      "type": "event"
    },
    {
      "anonymous": false,
      "inputs": [
        {
          "indexed": true,
          "internalType": "bytes32",
          "name": "role",
          "type": "bytes32"
        },
        {
          "indexed": true,
          "internalType": "address",
          "name": "account",
          "type": "address"
        },
        {
          "indexed": true,
          "internalType": "address",
          "name": "sender",
          "type": "address"
        }
      ],
      "name": "RoleGranted",
      "type": "event"
    },
    {
      "anonymous": false,
      "inputs": [
        {
          "indexed": true,
          "internalType": "bytes32",
          "name": "role",
          "type": "bytes32"
        },
        {
          "indexed": true,
          "internalType": "address",
          "name": "account",
          "type": "address"
        },
        {
          "indexed": true,
          "internalType": "address",
          "name": "sender",
          "type": "address"
        }
      ],
      "name": "RoleRevoked",
      "type": "event"
    },
    {
      "anonymous": false,
      "inputs": [
        {
          "indexed": true,
          "internalType": "address",
          "name": "from",
          "type": "address"
        },
        {
          "indexed": true,
          "internalType": "address",
          "name": "to",
          "type": "address"
        },
        {
          "indexed": true,
          "internalType": "uint256",
          "name": "tokenId",
          "type": "uint256"
        }
      ],
      "name": "Transfer",
      "type": "event"
    },
    {
      "inputs": [],
      "name": "DEFAULT_ADMIN_ROLE",
      "outputs": [
        {
          "internalType": "bytes32",
          "name": "",
          "type": "bytes32"
        }
      ],
      "stateMutability": "view",
      "type": "function"
    },
    {
      "inputs": [],
      "name": "MINTER_ROLE",
      "outputs": [
        {
          "internalType": "bytes32",
          "name": "",
          "type": "bytes32"
        }
      ],
      "stateMutability": "view",
      "type": "function"
    },
    {
      "inputs": [
        {
          "internalType": "address",
          "name": "to",
          "type": "address"
        },
        {
          "internalType": "uint256",
          "name": "tokenId",
          "type": "uint256"
        }
      ],
      "name": "approve",
      "outputs": [],
      "stateMutability": "nonpayable",
      "type": "function"
    },
    {
      "inputs": [],
      "name": "availableToWithdraw",
      "outputs": [
        {
          "internalType": "uint256",
          "name": "",
          "type": "uint256"
        }
      ],
      "stateMutability": "view",
      "type": "function"
    },
    {
      "inputs": [
        {
          "internalType": "address",
          "name": "owner",
          "type": "address"
        }
      ],
      "name": "balanceOf",
      "outputs": [
        {
          "internalType": "uint256",
          "name": "",
          "type": "uint256"
        }
      ],
      "stateMutability": "view",
      "type": "function"
    },
    {
      "inputs": [
        {
          "internalType": "uint256",
          "name": "tokenId",
          "type": "uint256"
        }
      ],
      "name": "getApproved",
      "outputs": [
        {
          "internalType": "address",
          "name": "",
          "type": "address"
        }
      ],
      "stateMutability": "view",
      "type": "function"
    },
    {
      "inputs": [],
      "name": "getChainID",
      "outputs": [
        {
          "internalType": "uint256",
          "name": "",
          "type": "uint256"
        }
      ],
      "stateMutability": "view",
      "type": "function"
    },
    {
      "inputs": [
        {
          "internalType": "bytes32",
          "name": "role",
          "type": "bytes32"
        }
      ],
      "name": "getRoleAdmin",
      "outputs": [
        {
          "internalType": "bytes32",
          "name": "",
          "type": "bytes32"
        }
      ],
      "stateMutability": "view",
      "type": "function"
    },
    {
      "inputs": [
        {
          "internalType": "bytes32",
          "name": "role",
          "type": "bytes32"
        },
        {
          "internalType": "address",
          "name": "account",
          "type": "address"
        }
      ],
      "name": "grantRole",
      "outputs": [],
      "stateMutability": "nonpayable",
      "type": "function"
    },
    {
      "inputs": [
        {
          "internalType": "bytes32",
          "name": "role",
          "type": "bytes32"
        },
        {
          "internalType": "address",
          "name": "account",
          "type": "address"
        }
      ],
      "name": "hasRole",
      "outputs": [
        {
          "internalType": "bool",
          "name": "",
          "type": "bool"
        }
      ],
      "stateMutability": "view",
      "type": "function"
    },
    {
      "inputs": [
        {
          "internalType": "address",
          "name": "owner",
          "type": "address"
        },
        {
          "internalType": "address",
          "name": "operator",
          "type": "address"
        }
      ],
      "name": "isApprovedForAll",
      "outputs": [
        {
          "internalType": "bool",
          "name": "",
          "type": "bool"
        }
      ],
      "stateMutability": "view",
      "type": "function"
    },
    {
      "inputs": [],
      "name": "name",
      "outputs": [
        {
          "internalType": "string",
          "name": "",
          "type": "string"
        }
      ],
      "stateMutability": "view",
      "type": "function"
    },
    {
      "inputs": [
        {
          "internalType": "uint256",
          "name": "tokenId",
          "type": "uint256"
        }
      ],
      "name": "ownerOf",
      "outputs": [
        {
          "internalType": "address",
          "name": "",
          "type": "address"
        }
      ],
      "stateMutability": "view",
      "type": "function"
    },
    {
      "inputs": [
        {
          "internalType": "address",
          "name": "redeemer",
          "type": "address"
        },
        {
          "components": [
            {
              "internalType": "uint256",
              "name": "tokenId",
              "type": "uint256"
            },
            {
              "internalType": "uint256",
              "name": "minPrice",
              "type": "uint256"
            },
            {
              "internalType": "string",
              "name": "uri",
              "type": "string"
            },
            {
              "internalType": "bytes",
              "name": "signature",
              "type": "bytes"
            }
          ],
          "internalType": "struct LazyNFT.NFTVoucher",
          "name": "voucher",
          "type": "tuple"
        }
      ],
      "name": "redeem",
      "outputs": [
        {
          "internalType": "uint256",
          "name": "",
          "type": "uint256"
        }
      ],
      "stateMutability": "payable",
      "type": "function"
    },
    {
      "inputs": [
        {
          "internalType": "bytes32",
          "name": "role",
          "type": "bytes32"
        },
        {
          "internalType": "address",
          "name": "account",
          "type": "address"
        }
      ],
      "name": "renounceRole",
      "outputs": [],
      "stateMutability": "nonpayable",
      "type": "function"
    },
    {
      "inputs": [
        {
          "internalType": "bytes32",
          "name": "role",
          "type": "bytes32"
        },
        {
          "internalType": "address",
          "name": "account",
          "type": "address"
        }
      ],
      "name": "revokeRole",
      "outputs": [],
      "stateMutability": "nonpayable",
      "type": "function"
    },
    {
      "inputs": [
        {
          "internalType": "address",
          "name": "from",
          "type": "address"
        },
        {
          "internalType": "address",
          "name": "to",
          "type": "address"
        },
        {
          "internalType": "uint256",
          "name": "tokenId",
          "type": "uint256"
        }
      ],
      "name": "safeTransferFrom",
      "outputs": [],
      "stateMutability": "nonpayable",
      "type": "function"
    },
    {
      "inputs": [
        {
          "internalType": "address",
          "name": "from",
          "type": "address"
        },
        {
          "internalType": "address",
          "name": "to",
          "type": "address"
        },
        {
          "internalType": "uint256",
          "name": "tokenId",
          "type": "uint256"
        },
        {
          "internalType": "bytes",
          "name": "_data",
          "type": "bytes"
        }
      ],
      "name": "safeTransferFrom",
      "outputs": [],
      "stateMutability": "nonpayable",
      "type": "function"
    },
    {
      "inputs": [
        {
          "internalType": "address",
          "name": "operator",
          "type": "address"
        },
        {
          "internalType": "bool",
          "name": "approved",
          "type": "bool"
        }
      ],
      "name": "setApprovalForAll",
      "outputs": [],
      "stateMutability": "nonpayable",
      "type": "function"
    },
    {
      "inputs": [
        {
          "internalType": "bytes4",
          "name": "interfaceId",
          "type": "bytes4"
        }
      ],
      "name": "supportsInterface",
      "outputs": [
        {
          "internalType": "bool",
          "name": "",
          "type": "bool"
        }
      ],
      "stateMutability": "view",
      "type": "function"
    },
    {
      "inputs": [],
      "name": "symbol",
      "outputs": [
        {
          "internalType": "string",
          "name": "",
          "type": "string"
        }
      ],
      "stateMutability": "view",
      "type": "function"
    },
    {
      "inputs": [],
      "name": "tokenCount",
      "outputs": [
        {
          "internalType": "uint256",
          "name": "",
          "type": "uint256"
        }
      ],
      "stateMutability": "view",
      "type": "function"
    },
    {
      "inputs": [
        {
          "internalType": "uint256",
          "name": "tokenId",
          "type": "uint256"
        }
      ],
      "name": "tokenURI",
      "outputs": [
        {
          "internalType": "string",
          "name": "",
          "type": "string"
        }
      ],
      "stateMutability": "view",
      "type": "function"
    },
    {
      "inputs": [],
      "name": "totalSupply",
      "outputs": [
        {
          "internalType": "uint256",
          "name": "",
          "type": "uint256"
        }
      ],
      "stateMutability": "view",
      "type": "function"
    },
    {
      "inputs": [
        {
          "internalType": "address",
          "name": "from",
          "type": "address"
        },
        {
          "internalType": "address",
          "name": "to",
          "type": "address"
        },
        {
          "internalType": "uint256",
          "name": "tokenId",
          "type": "uint256"
        }
      ],
      "name": "transferFrom",
      "outputs": [],
      "stateMutability": "nonpayable",
      "type": "function"
    },
    {
      "inputs": [],
      "name": "withdraw",
      "outputs": [],
      "stateMutability": "nonpayable",
      "type": "function"
    }
  ],
  "bytecode": "0x6101406040523480156200001257600080fd5b5060405162004fbc38038062004fbc8339818101604052810190620000389190620004b0565b6040518060400160405280600f81526020017f4c617a794e46542d566f756368657200000000000000000000000000000000008152506040518060400160405280600181526020017f31000000000000000000000000000000000000000000000000000000000000008152506040518060400160405280600781526020017f4c617a794e4654000000000000000000000000000000000000000000000000008152506040518060400160405280600381526020017f4c415a0000000000000000000000000000000000000000000000000000000000815250816000908051906020019062000128929190620003e9565b50806001908051906020019062000141929190620003e9565b50505060008280519060200120905060008280519060200120905060007f8b73c3c69bb8fe3d512ecc4cf759cc79239f7b179b0ffacaa9a75d522b39400f90508260e081815250508161010081815250504660a08181525050620001ad8184846200023260201b60201c565b608081815250503073ffffffffffffffffffffffffffffffffffffffff1660c08173ffffffffffffffffffffffffffffffffffffffff1660601b8152505080610120818152505050505050506200022b7f9f2df0fed2c77648de5860a4cc508cd0818c85b8b8a1ab4ceeef8d981c8956a6826200026e60201b60201c565b5062000647565b600083838346306040516020016200024f9594939291906200050f565b6040516020818303038152906040528051906020012090509392505050565b6200028082826200028460201b60201c565b5050565b6200029682826200037660201b60201c565b620003725760016007600084815260200190815260200160002060000160008373ffffffffffffffffffffffffffffffffffffffff1673ffffffffffffffffffffffffffffffffffffffff16815260200190815260200160002060006101000a81548160ff02191690831515021790555062000317620003e160201b60201c565b73ffffffffffffffffffffffffffffffffffffffff168173ffffffffffffffffffffffffffffffffffffffff16837f2f8788117e7eff1d82e926ec794901d17c78024a50270940304540a733656f0d60405160405180910390a45b5050565b60006007600084815260200190815260200160002060000160008373ffffffffffffffffffffffffffffffffffffffff1673ffffffffffffffffffffffffffffffffffffffff16815260200190815260200160002060009054906101000a900460ff16905092915050565b600033905090565b828054620003f790620005c8565b90600052602060002090601f0160209004810192826200041b576000855562000467565b82601f106200043657805160ff191683800117855562000467565b8280016001018555821562000467579182015b828111156200046657825182559160200191906001019062000449565b5b5090506200047691906200047a565b5090565b5b80821115620004955760008160009055506001016200047b565b5090565b600081519050620004aa816200062d565b92915050565b600060208284031215620004c357600080fd5b6000620004d38482850162000499565b91505092915050565b620004e7816200056c565b82525050565b620004f88162000594565b82525050565b6200050981620005be565b82525050565b600060a082019050620005266000830188620004ed565b620005356020830187620004ed565b620005446040830186620004ed565b620005536060830185620004fe565b620005626080830184620004dc565b9695505050505050565b600062000579826200059e565b9050919050565b60006200058d826200059e565b9050919050565b6000819050919050565b600073ffffffffffffffffffffffffffffffffffffffff82169050919050565b6000819050919050565b60006002820490506001821680620005e157607f821691505b60208210811415620005f857620005f7620005fe565b5b50919050565b7f4e487b7100000000000000000000000000000000000000000000000000000000600052602260045260246000fd5b620006388162000580565b81146200064457600080fd5b50565b60805160a05160c05160601c60e05161010051610120516149226200069a6000396000612b8a01526000612bcc01526000612bab01526000612ae001526000612b3601526000612b5f01526149226000f3fe6080604052600436106101815760003560e01c80636352211e116100d1578063a22cb4651161008a578063d539139311610064578063d539139314610599578063d547741f146105c4578063e322ad2b146105ed578063e985e9c51461061857610181565b8063a22cb4651461050a578063b88d4fde14610533578063c87b56dd1461055c57610181565b80636352211e146103d257806370a082311461040f57806391d148541461044c57806395d89b41146104895780639f181b5e146104b4578063a217fddf146104df57610181565b806323b872dd1161013e57806336568abe1161011857806336568abe1461033e5780633ccfd60b1461036757806342842e0e1461037e578063564b81ef146103a757610181565b806323b872dd146102af578063248a9ca3146102d85780632f2ff15d1461031557610181565b806301ffc9a71461018657806306fdde03146101c3578063081812fc146101ee57806308708a781461022b578063095ea7b31461025b57806318160ddd14610284575b600080fd5b34801561019257600080fd5b506101ad60048036038101906101a891906131d3565b610655565b6040516101ba919061383e565b60405180910390f35b3480156101cf57600080fd5b506101d8610677565b6040516101e59190613951565b60405180910390f35b3480156101fa57600080fd5b5061021560048036038101906102109190613225565b610709565b60405161022291906137d7565b60405180910390f35b610245600480360381019061024091906130de565b61078e565b6040516102529190613c73565b60405180910390f35b34801561026757600080fd5b50610282600480360381019061027d9190613132565b6108cb565b005b34801561029057600080fd5b506102996109e3565b6040516102a69190613c73565b60405180910390f35b3480156102bb57600080fd5b506102d660048036038101906102d19190612fd8565b6109ed565b005b3480156102e457600080fd5b506102ff60048036038101906102fa919061316e565b610a4d565b60405161030c9190613859565b60405180910390f35b34801561032157600080fd5b5061033c60048036038101906103379190613197565b610a6d565b005b34801561034a57600080fd5b5061036560048036038101906103609190613197565b610a8e565b005b34801561037357600080fd5b5061037c610b11565b005b34801561038a57600080fd5b506103a560048036038101906103a09190612fd8565b610c53565b005b3480156103b357600080fd5b506103bc610c73565b6040516103c99190613c73565b60405180910390f35b3480156103de57600080fd5b506103f960048036038101906103f49190613225565b610c80565b60405161040691906137d7565b60405180910390f35b34801561041b57600080fd5b5061043660048036038101906104319190612f73565b610d32565b6040516104439190613c73565b60405180910390f35b34801561045857600080fd5b50610473600480360381019061046e9190613197565b610dea565b604051610480919061383e565b60405180910390f35b34801561049557600080fd5b5061049e610e55565b6040516104ab9190613951565b60405180910390f35b3480156104c057600080fd5b506104c9610ee7565b6040516104d69190613c73565b60405180910390f35b3480156104eb57600080fd5b506104f4610eed565b6040516105019190613859565b60405180910390f35b34801561051657600080fd5b50610531600480360381019061052c91906130a2565b610ef4565b005b34801561053f57600080fd5b5061055a60048036038101906105559190613027565b610f0a565b005b34801561056857600080fd5b50610583600480360381019061057e9190613225565b610f6c565b6040516105909190613951565b60405180910390f35b3480156105a557600080fd5b506105ae6110be565b6040516105bb9190613859565b60405180910390f35b3480156105d057600080fd5b506105eb60048036038101906105e69190613197565b6110e2565b005b3480156105f957600080fd5b50610602611103565b60405161060f9190613c73565b60405180910390f35b34801561062457600080fd5b5061063f600480360381019061063a9190612f9c565b61114a565b60405161064c919061383e565b60405180910390f35b6000610660826111de565b80610670575061066f826112c0565b5b9050919050565b60606000805461068690613fec565b80601f01602080910402602001604051908101604052809291908181526020018280546106b290613fec565b80156106ff5780601f106106d4576101008083540402835291602001916106ff565b820191906000526020600020905b8154815290600101906020018083116106e257829003601f168201915b5050505050905090565b60006107148261133a565b610753576040517f08c379a000000000000000000000000000000000000000000000000000000000815260040161074a90613bb3565b60405180910390fd5b6004600083815260200190815260200160002060009054906101000a900473ffffffffffffffffffffffffffffffffffffffff169050919050565b60008061079a836113a6565b905082602001353410156107e3576040517f08c379a00000000000000000000000000000000000000000000000000000000081526004016107da90613b53565b60405180910390fd5b8073ffffffffffffffffffffffffffffffffffffffff166108fc84602001359081150290604051600060405180830381858888f1935050505015801561082d573d6000803e3d6000fd5b50600860008154809291906108419061404f565b919050555061085281600854611418565b6108b06008548480604001906108689190613ce5565b8080601f016020809104026020016040519081016040528093929190818152602001838380828437600081840152601f19601f820116905080830192505050505050506115f2565b6108bd8185600854611666565b826000013591505092915050565b60006108d682610c80565b90508073ffffffffffffffffffffffffffffffffffffffff168373ffffffffffffffffffffffffffffffffffffffff161415610947576040517f08c379a000000000000000000000000000000000000000000000000000000000815260040161093e90613c13565b60405180910390fd5b8073ffffffffffffffffffffffffffffffffffffffff166109666118cd565b73ffffffffffffffffffffffffffffffffffffffff16148061099557506109948161098f6118cd565b61114a565b5b6109d4576040517f08c379a00000000000000000000000000000000000000000000000000000000081526004016109cb90613ab3565b60405180910390fd5b6109de83836118d5565b505050565b6000600854905090565b6109fe6109f86118cd565b8261198e565b610a3d576040517f08c379a0000000000000000000000000000000000000000000000000000000008152600401610a3490613c33565b60405180910390fd5b610a48838383611666565b505050565b600060076000838152602001908152602001600020600101549050919050565b610a7682610a4d565b610a7f81611a6c565b610a898383611a80565b505050565b610a966118cd565b73ffffffffffffffffffffffffffffffffffffffff168173ffffffffffffffffffffffffffffffffffffffff1614610b03576040517f08c379a0000000000000000000000000000000000000000000000000000000008152600401610afa90613c53565b60405180910390fd5b610b0d8282611b61565b5050565b610b3b7f9f2df0fed2c77648de5860a4cc508cd0818c85b8b8a1ab4ceeef8d981c8956a633610dea565b610b7a576040517f08c379a0000000000000000000000000000000000000000000000000000000008152600401610b7190613bf3565b60405180910390fd5b60003390506000600960008373ffffffffffffffffffffffffffffffffffffffff1673ffffffffffffffffffffffffffffffffffffffff1681526020019081526020016000205490506000600960008473ffffffffffffffffffffffffffffffffffffffff1673ffffffffffffffffffffffffffffffffffffffff168152602001908152602001600020819055508173ffffffffffffffffffffffffffffffffffffffff166108fc829081150290604051600060405180830381858888f19350505050158015610c4e573d6000803e3d6000fd5b505050565b610c6e83838360405180602001604052806000815250610f0a565b505050565b6000804690508091505090565b6000806002600084815260200190815260200160002060009054906101000a900473ffffffffffffffffffffffffffffffffffffffff169050600073ffffffffffffffffffffffffffffffffffffffff168173ffffffffffffffffffffffffffffffffffffffff161415610d29576040517f08c379a0000000000000000000000000000000000000000000000000000000008152600401610d2090613af3565b60405180910390fd5b80915050919050565b60008073ffffffffffffffffffffffffffffffffffffffff168273ffffffffffffffffffffffffffffffffffffffff161415610da3576040517f08c379a0000000000000000000000000000000000000000000000000000000008152600401610d9a90613ad3565b60405180910390fd5b600360008373ffffffffffffffffffffffffffffffffffffffff1673ffffffffffffffffffffffffffffffffffffffff168152602001908152602001600020549050919050565b60006007600084815260200190815260200160002060000160008373ffffffffffffffffffffffffffffffffffffffff1673ffffffffffffffffffffffffffffffffffffffff16815260200190815260200160002060009054906101000a900460ff16905092915050565b606060018054610e6490613fec565b80601f0160208091040260200160405190810160405280929190818152602001828054610e9090613fec565b8015610edd5780601f10610eb257610100808354040283529160200191610edd565b820191906000526020600020905b815481529060010190602001808311610ec057829003601f168201915b5050505050905090565b60085481565b6000801b81565b610f06610eff6118cd565b8383611c43565b5050565b610f1b610f156118cd565b8361198e565b610f5a576040517f08c379a0000000000000000000000000000000000000000000000000000000008152600401610f5190613c33565b60405180910390fd5b610f6684848484611db0565b50505050565b6060610f778261133a565b610fb6576040517f08c379a0000000000000000000000000000000000000000000000000000000008152600401610fad90613b93565b60405180910390fd5b6000600660008481526020019081526020016000208054610fd690613fec565b80601f016020809104026020016040519081016040528092919081815260200182805461100290613fec565b801561104f5780601f106110245761010080835404028352916020019161104f565b820191906000526020600020905b81548152906001019060200180831161103257829003601f168201915b505050505090506000611060611e0c565b90506000815114156110765781925050506110b9565b6000825111156110ab578082604051602001611093929190613742565b604051602081830303815290604052925050506110b9565b6110b484611e23565b925050505b919050565b7f9f2df0fed2c77648de5860a4cc508cd0818c85b8b8a1ab4ceeef8d981c8956a681565b6110eb82610a4d565b6110f481611a6c565b6110fe8383611b61565b505050565b6000600960003373ffffffffffffffffffffffffffffffffffffffff1673ffffffffffffffffffffffffffffffffffffffff16815260200190815260200160002054905090565b6000600560008473ffffffffffffffffffffffffffffffffffffffff1673ffffffffffffffffffffffffffffffffffffffff16815260200190815260200160002060008373ffffffffffffffffffffffffffffffffffffffff1673ffffffffffffffffffffffffffffffffffffffff16815260200190815260200160002060009054906101000a900460ff16905092915050565b60007f80ac58cd000000000000000000000000000000000000000000000000000000007bffffffffffffffffffffffffffffffffffffffffffffffffffffffff1916827bffffffffffffffffffffffffffffffffffffffffffffffffffffffff191614806112a957507f5b5e139f000000000000000000000000000000000000000000000000000000007bffffffffffffffffffffffffffffffffffffffffffffffffffffffff1916827bffffffffffffffffffffffffffffffffffffffffffffffffffffffff1916145b806112b957506112b882611eca565b5b9050919050565b60007f7965db0b000000000000000000000000000000000000000000000000000000007bffffffffffffffffffffffffffffffffffffffffffffffffffffffff1916827bffffffffffffffffffffffffffffffffffffffffffffffffffffffff191614806113335750611332826111de565b5b9050919050565b60008073ffffffffffffffffffffffffffffffffffffffff166002600084815260200190815260200160002060009054906101000a900473ffffffffffffffffffffffffffffffffffffffff1673ffffffffffffffffffffffffffffffffffffffff1614159050919050565b6000806113b283611f34565b9050611410818480606001906113c89190613c8e565b8080601f016020809104026020016040519081016040528093929190818152602001838380828437600081840152601f19601f82011690508083019250505050505050611fbf565b915050919050565b600073ffffffffffffffffffffffffffffffffffffffff168273ffffffffffffffffffffffffffffffffffffffff161415611488576040517f08c379a000000000000000000000000000000000000000000000000000000000815260040161147f90613b73565b60405180910390fd5b6114918161133a565b156114d1576040517f08c379a00000000000000000000000000000000000000000000000000000000081526004016114c890613a13565b60405180910390fd5b6114dd60008383611fe6565b6001600360008473ffffffffffffffffffffffffffffffffffffffff1673ffffffffffffffffffffffffffffffffffffffff168152602001908152602001600020600082825461152d9190613de0565b92505081905550816002600083815260200190815260200160002060006101000a81548173ffffffffffffffffffffffffffffffffffffffff021916908373ffffffffffffffffffffffffffffffffffffffff160217905550808273ffffffffffffffffffffffffffffffffffffffff16600073ffffffffffffffffffffffffffffffffffffffff167fddf252ad1be2c89b69c2b068fc378daa952ba7f163c4a11628f55a4df523b3ef60405160405180910390a46115ee60008383611feb565b5050565b6115fb8261133a565b61163a576040517f08c379a000000000000000000000000000000000000000000000000000000000815260040161163190613b13565b60405180910390fd5b80600660008481526020019081526020016000209080519060200190611661929190612dcf565b505050565b8273ffffffffffffffffffffffffffffffffffffffff1661168682610c80565b73ffffffffffffffffffffffffffffffffffffffff16146116dc576040517f08c379a00000000000000000000000000000000000000000000000000000000081526004016116d3906139f3565b60405180910390fd5b600073ffffffffffffffffffffffffffffffffffffffff168273ffffffffffffffffffffffffffffffffffffffff16141561174c576040517f08c379a000000000000000000000000000000000000000000000000000000000815260040161174390613a33565b60405180910390fd5b611757838383611fe6565b6117626000826118d5565b6001600360008573ffffffffffffffffffffffffffffffffffffffff1673ffffffffffffffffffffffffffffffffffffffff16815260200190815260200160002060008282546117b29190613ec1565b925050819055506001600360008473ffffffffffffffffffffffffffffffffffffffff1673ffffffffffffffffffffffffffffffffffffffff16815260200190815260200160002060008282546118099190613de0565b92505081905550816002600083815260200190815260200160002060006101000a81548173ffffffffffffffffffffffffffffffffffffffff021916908373ffffffffffffffffffffffffffffffffffffffff160217905550808273ffffffffffffffffffffffffffffffffffffffff168473ffffffffffffffffffffffffffffffffffffffff167fddf252ad1be2c89b69c2b068fc378daa952ba7f163c4a11628f55a4df523b3ef60405160405180910390a46118c8838383611feb565b505050565b600033905090565b816004600083815260200190815260200160002060006101000a81548173ffffffffffffffffffffffffffffffffffffffff021916908373ffffffffffffffffffffffffffffffffffffffff160217905550808273ffffffffffffffffffffffffffffffffffffffff1661194883610c80565b73ffffffffffffffffffffffffffffffffffffffff167f8c5be1e5ebec7d5bd14f71427d1e84f3dd0314c0f7b2291e5b200ac8c7c3b92560405160405180910390a45050565b60006119998261133a565b6119d8576040517f08c379a00000000000000000000000000000000000000000000000000000000081526004016119cf90613a93565b60405180910390fd5b60006119e383610c80565b90508073ffffffffffffffffffffffffffffffffffffffff168473ffffffffffffffffffffffffffffffffffffffff161480611a255750611a24818561114a565b5b80611a6357508373ffffffffffffffffffffffffffffffffffffffff16611a4b84610709565b73ffffffffffffffffffffffffffffffffffffffff16145b91505092915050565b611a7d81611a786118cd565b611ff0565b50565b611a8a8282610dea565b611b5d5760016007600084815260200190815260200160002060000160008373ffffffffffffffffffffffffffffffffffffffff1673ffffffffffffffffffffffffffffffffffffffff16815260200190815260200160002060006101000a81548160ff021916908315150217905550611b026118cd565b73ffffffffffffffffffffffffffffffffffffffff168173ffffffffffffffffffffffffffffffffffffffff16837f2f8788117e7eff1d82e926ec794901d17c78024a50270940304540a733656f0d60405160405180910390a45b5050565b611b6b8282610dea565b15611c3f5760006007600084815260200190815260200160002060000160008373ffffffffffffffffffffffffffffffffffffffff1673ffffffffffffffffffffffffffffffffffffffff16815260200190815260200160002060006101000a81548160ff021916908315150217905550611be46118cd565b73ffffffffffffffffffffffffffffffffffffffff168173ffffffffffffffffffffffffffffffffffffffff16837ff6391f5c32d9c69d2a47ea670b442974b53935d1edc7fd64eb21e047a839171b60405160405180910390a45b5050565b8173ffffffffffffffffffffffffffffffffffffffff168373ffffffffffffffffffffffffffffffffffffffff161415611cb2576040517f08c379a0000000000000000000000000000000000000000000000000000000008152600401611ca990613a53565b60405180910390fd5b80600560008573ffffffffffffffffffffffffffffffffffffffff1673ffffffffffffffffffffffffffffffffffffffff16815260200190815260200160002060008473ffffffffffffffffffffffffffffffffffffffff1673ffffffffffffffffffffffffffffffffffffffff16815260200190815260200160002060006101000a81548160ff0219169083151502179055508173ffffffffffffffffffffffffffffffffffffffff168373ffffffffffffffffffffffffffffffffffffffff167f17307eab39ab6107e8899845ad3d59bd9653f200f220920489ca2b5937696c3183604051611da3919061383e565b60405180910390a3505050565b611dbb848484611666565b611dc78484848461208d565b611e06576040517f08c379a0000000000000000000000000000000000000000000000000000000008152600401611dfd906139d3565b60405180910390fd5b50505050565b606060405180602001604052806000815250905090565b6060611e2e8261133a565b611e6d576040517f08c379a0000000000000000000000000000000000000000000000000000000008152600401611e6490613bd3565b60405180910390fd5b6000611e77611e0c565b90506000815111611e975760405180602001604052806000815250611ec2565b80611ea184612224565b604051602001611eb2929190613742565b6040516020818303038152906040525b915050919050565b60007f01ffc9a7000000000000000000000000000000000000000000000000000000007bffffffffffffffffffffffffffffffffffffffffffffffffffffffff1916827bffffffffffffffffffffffffffffffffffffffffffffffffffffffff1916149050919050565b6000611fb87f6316f9ddd4d59a364f3b95c26bab9d392c3380ace0fff15e91ed76f0d8bcd15a83600001358460200135858060400190611f749190613ce5565b604051611f82929190613729565b6040518091039020604051602001611f9d94939291906138c7565b604051602081830303815290604052805190602001206123d1565b9050919050565b6000806000611fce85856123eb565b91509150611fdb8161246e565b819250505092915050565b505050565b505050565b611ffa8282610dea565b6120895761201f8173ffffffffffffffffffffffffffffffffffffffff1660146127bf565b61202d8360001c60206127bf565b60405160200161203e92919061379d565b6040516020818303038152906040526040517f08c379a00000000000000000000000000000000000000000000000000000000081526004016120809190613951565b60405180910390fd5b5050565b60006120ae8473ffffffffffffffffffffffffffffffffffffffff16612ab9565b15612217578373ffffffffffffffffffffffffffffffffffffffff1663150b7a026120d76118cd565b8786866040518563ffffffff1660e01b81526004016120f994939291906137f2565b602060405180830381600087803b15801561211357600080fd5b505af192505050801561214457506040513d601f19601f8201168201806040525081019061214191906131fc565b60015b6121c7573d8060008114612174576040519150601f19603f3d011682016040523d82523d6000602084013e612179565b606091505b506000815114156121bf576040517f08c379a00000000000000000000000000000000000000000000000000000000081526004016121b6906139d3565b60405180910390fd5b805181602001fd5b63150b7a0260e01b7bffffffffffffffffffffffffffffffffffffffffffffffffffffffff1916817bffffffffffffffffffffffffffffffffffffffffffffffffffffffff19161491505061221c565b600190505b949350505050565b6060600082141561226c576040518060400160405280600181526020017f300000000000000000000000000000000000000000000000000000000000000081525090506123cc565b600082905060005b6000821461229e5780806122879061404f565b915050600a826122979190613e36565b9150612274565b60008167ffffffffffffffff8111156122e0577f4e487b7100000000000000000000000000000000000000000000000000000000600052604160045260246000fd5b6040519080825280601f01601f1916602001820160405280156123125781602001600182028036833780820191505090505b5090505b600085146123c55760018261232b9190613ec1565b9150600a8561233a91906140a2565b60306123469190613de0565b60f81b818381518110612382577f4e487b7100000000000000000000000000000000000000000000000000000000600052603260045260246000fd5b60200101907effffffffffffffffffffffffffffffffffffffffffffffffffffffffffffff1916908160001a905350600a856123be9190613e36565b9450612316565b8093505050505b919050565b60006123e46123de612adc565b83612bf6565b9050919050565b60008060418351141561242d5760008060006020860151925060408601519150606086015160001a905061242187828585612c29565b94509450505050612467565b60408351141561245e576000806020850151915060408501519050612453868383612d36565b935093505050612467565b60006002915091505b9250929050565b600060048111156124a8577f4e487b7100000000000000000000000000000000000000000000000000000000600052602160045260246000fd5b8160048111156124e1577f4e487b7100000000000000000000000000000000000000000000000000000000600052602160045260246000fd5b14156124ec576127bc565b60016004811115612526577f4e487b7100000000000000000000000000000000000000000000000000000000600052602160045260246000fd5b81600481111561255f577f4e487b7100000000000000000000000000000000000000000000000000000000600052602160045260246000fd5b14156125a0576040517f08c379a000000000000000000000000000000000000000000000000000000000815260040161259790613973565b60405180910390fd5b600260048111156125da577f4e487b7100000000000000000000000000000000000000000000000000000000600052602160045260246000fd5b816004811115612613577f4e487b7100000000000000000000000000000000000000000000000000000000600052602160045260246000fd5b1415612654576040517f08c379a000000000000000000000000000000000000000000000000000000000815260040161264b906139b3565b60405180910390fd5b6003600481111561268e577f4e487b7100000000000000000000000000000000000000000000000000000000600052602160045260246000fd5b8160048111156126c7577f4e487b7100000000000000000000000000000000000000000000000000000000600052602160045260246000fd5b1415612708576040517f08c379a00000000000000000000000000000000000000000000000000000000081526004016126ff90613a73565b60405180910390fd5b600480811115612741577f4e487b7100000000000000000000000000000000000000000000000000000000600052602160045260246000fd5b81600481111561277a577f4e487b7100000000000000000000000000000000000000000000000000000000600052602160045260246000fd5b14156127bb576040517f08c379a00000000000000000000000000000000000000000000000000000000081526004016127b290613b33565b60405180910390fd5b5b50565b6060600060028360026127d29190613e67565b6127dc9190613de0565b67ffffffffffffffff81111561281b577f4e487b7100000000000000000000000000000000000000000000000000000000600052604160045260246000fd5b6040519080825280601f01601f19166020018201604052801561284d5781602001600182028036833780820191505090505b5090507f3000000000000000000000000000000000000000000000000000000000000000816000815181106128ab577f4e487b7100000000000000000000000000000000000000000000000000000000600052603260045260246000fd5b60200101907effffffffffffffffffffffffffffffffffffffffffffffffffffffffffffff1916908160001a9053507f780000000000000000000000000000000000000000000000000000000000000081600181518110612935577f4e487b7100000000000000000000000000000000000000000000000000000000600052603260045260246000fd5b60200101907effffffffffffffffffffffffffffffffffffffffffffffffffffffffffffff1916908160001a905350600060018460026129759190613e67565b61297f9190613de0565b90505b6001811115612a6b577f3031323334353637383961626364656600000000000000000000000000000000600f8616601081106129e7577f4e487b7100000000000000000000000000000000000000000000000000000000600052603260045260246000fd5b1a60f81b828281518110612a24577f4e487b7100000000000000000000000000000000000000000000000000000000600052603260045260246000fd5b60200101907effffffffffffffffffffffffffffffffffffffffffffffffffffffffffffff1916908160001a905350600485901c945080612a6490613fc2565b9050612982565b5060008414612aaf576040517f08c379a0000000000000000000000000000000000000000000000000000000008152600401612aa690613993565b60405180910390fd5b8091505092915050565b6000808273ffffffffffffffffffffffffffffffffffffffff163b119050919050565b60007f000000000000000000000000000000000000000000000000000000000000000073ffffffffffffffffffffffffffffffffffffffff163073ffffffffffffffffffffffffffffffffffffffff16148015612b5857507f000000000000000000000000000000000000000000000000000000000000000046145b15612b85577f00000000000000000000000000000000000000000000000000000000000000009050612bf3565b612bf07f00000000000000000000000000000000000000000000000000000000000000007f00000000000000000000000000000000000000000000000000000000000000007f0000000000000000000000000000000000000000000000000000000000000000612d95565b90505b90565b60008282604051602001612c0b929190613766565b60405160208183030381529060405280519060200120905092915050565b6000807f7fffffffffffffffffffffffffffffff5d576e7357a4501ddfe92f46681b20a08360001c1115612c64576000600391509150612d2d565b601b8560ff1614158015612c7c5750601c8560ff1614155b15612c8e576000600491509150612d2d565b600060018787878760405160008152602001604052604051612cb3949392919061390c565b6020604051602081039080840390855afa158015612cd5573d6000803e3d6000fd5b505050602060405103519050600073ffffffffffffffffffffffffffffffffffffffff168173ffffffffffffffffffffffffffffffffffffffff161415612d2457600060019250925050612d2d565b80600092509250505b94509492505050565b60008060007f7fffffffffffffffffffffffffffffffffffffffffffffffffffffffffffffff60001b841690506000601b60ff8660001c901c612d799190613de0565b9050612d8787828885612c29565b935093505050935093915050565b60008383834630604051602001612db0959493929190613874565b6040516020818303038152906040528051906020012090509392505050565b828054612ddb90613fec565b90600052602060002090601f016020900481019282612dfd5760008555612e44565b82601f10612e1657805160ff1916838001178555612e44565b82800160010185558215612e44579182015b82811115612e43578251825591602001919060010190612e28565b5b509050612e519190612e55565b5090565b5b80821115612e6e576000816000905550600101612e56565b5090565b6000612e85612e8084613d61565b613d3c565b905082815260208101848484011115612e9d57600080fd5b612ea8848285613f80565b509392505050565b600081359050612ebf81614879565b92915050565b600081359050612ed481614890565b92915050565b600081359050612ee9816148a7565b92915050565b600081359050612efe816148be565b92915050565b600081519050612f13816148be565b92915050565b600082601f830112612f2a57600080fd5b8135612f3a848260208601612e72565b91505092915050565b600060808284031215612f5557600080fd5b81905092915050565b600081359050612f6d816148d5565b92915050565b600060208284031215612f8557600080fd5b6000612f9384828501612eb0565b91505092915050565b60008060408385031215612faf57600080fd5b6000612fbd85828601612eb0565b9250506020612fce85828601612eb0565b9150509250929050565b600080600060608486031215612fed57600080fd5b6000612ffb86828701612eb0565b935050602061300c86828701612eb0565b925050604061301d86828701612f5e565b9150509250925092565b6000806000806080858703121561303d57600080fd5b600061304b87828801612eb0565b945050602061305c87828801612eb0565b935050604061306d87828801612f5e565b925050606085013567ffffffffffffffff81111561308a57600080fd5b61309687828801612f19565b91505092959194509250565b600080604083850312156130b557600080fd5b60006130c385828601612eb0565b92505060206130d485828601612ec5565b9150509250929050565b600080604083850312156130f157600080fd5b60006130ff85828601612eb0565b925050602083013567ffffffffffffffff81111561311c57600080fd5b61312885828601612f43565b9150509250929050565b6000806040838503121561314557600080fd5b600061315385828601612eb0565b925050602061316485828601612f5e565b9150509250929050565b60006020828403121561318057600080fd5b600061318e84828501612eda565b91505092915050565b600080604083850312156131aa57600080fd5b60006131b885828601612eda565b92505060206131c985828601612eb0565b9150509250929050565b6000602082840312156131e557600080fd5b60006131f384828501612eef565b91505092915050565b60006020828403121561320e57600080fd5b600061321c84828501612f04565b91505092915050565b60006020828403121561323757600080fd5b600061324584828501612f5e565b91505092915050565b61325781613ef5565b82525050565b61326681613f07565b82525050565b61327581613f13565b82525050565b61328c61328782613f13565b614098565b82525050565b600061329e8385613db9565b93506132ab838584613f80565b82840190509392505050565b60006132c282613d92565b6132cc8185613da8565b93506132dc818560208601613f8f565b6132e58161418f565b840191505092915050565b60006132fb82613d9d565b6133058185613dc4565b9350613315818560208601613f8f565b61331e8161418f565b840191505092915050565b600061333482613d9d565b61333e8185613dd5565b935061334e818560208601613f8f565b80840191505092915050565b6000613367601883613dc4565b9150613372826141a0565b602082019050919050565b600061338a602083613dc4565b9150613395826141c9565b602082019050919050565b60006133ad601f83613dc4565b91506133b8826141f2565b602082019050919050565b60006133d0603283613dc4565b91506133db8261421b565b604082019050919050565b60006133f3602583613dc4565b91506133fe8261426a565b604082019050919050565b6000613416601c83613dc4565b9150613421826142b9565b602082019050919050565b6000613439600283613dd5565b9150613444826142e2565b600282019050919050565b600061345c602483613dc4565b91506134678261430b565b604082019050919050565b600061347f601983613dc4565b915061348a8261435a565b602082019050919050565b60006134a2602283613dc4565b91506134ad82614383565b604082019050919050565b60006134c5602c83613dc4565b91506134d0826143d2565b604082019050919050565b60006134e8603883613dc4565b91506134f382614421565b604082019050919050565b600061350b602a83613dc4565b915061351682614470565b604082019050919050565b600061352e602983613dc4565b9150613539826144bf565b604082019050919050565b6000613551602e83613dc4565b915061355c8261450e565b604082019050919050565b6000613574602283613dc4565b915061357f8261455d565b604082019050919050565b6000613597601c83613dc4565b91506135a2826145ac565b602082019050919050565b60006135ba602083613dc4565b91506135c5826145d5565b602082019050919050565b60006135dd603183613dc4565b91506135e8826145fe565b604082019050919050565b6000613600602c83613dc4565b915061360b8261464d565b604082019050919050565b6000613623602f83613dc4565b915061362e8261469c565b604082019050919050565b6000613646602483613dc4565b9150613651826146eb565b604082019050919050565b6000613669602183613dc4565b91506136748261473a565b604082019050919050565b600061368c603183613dc4565b915061369782614789565b604082019050919050565b60006136af601783613dd5565b91506136ba826147d8565b601782019050919050565b60006136d2601183613dd5565b91506136dd82614801565b601182019050919050565b60006136f5602f83613dc4565b91506137008261482a565b604082019050919050565b61371481613f69565b82525050565b61372381613f73565b82525050565b6000613736828486613292565b91508190509392505050565b600061374e8285613329565b915061375a8284613329565b91508190509392505050565b60006137718261342c565b915061377d828561327b565b60208201915061378d828461327b565b6020820191508190509392505050565b60006137a8826136a2565b91506137b48285613329565b91506137bf826136c5565b91506137cb8284613329565b91508190509392505050565b60006020820190506137ec600083018461324e565b92915050565b6000608082019050613807600083018761324e565b613814602083018661324e565b613821604083018561370b565b818103606083015261383381846132b7565b905095945050505050565b6000602082019050613853600083018461325d565b92915050565b600060208201905061386e600083018461326c565b92915050565b600060a082019050613889600083018861326c565b613896602083018761326c565b6138a3604083018661326c565b6138b0606083018561370b565b6138bd608083018461324e565b9695505050505050565b60006080820190506138dc600083018761326c565b6138e9602083018661370b565b6138f6604083018561370b565b613903606083018461326c565b95945050505050565b6000608082019050613921600083018761326c565b61392e602083018661371a565b61393b604083018561326c565b613948606083018461326c565b95945050505050565b6000602082019050818103600083015261396b81846132f0565b905092915050565b6000602082019050818103600083015261398c8161335a565b9050919050565b600060208201905081810360008301526139ac8161337d565b9050919050565b600060208201905081810360008301526139cc816133a0565b9050919050565b600060208201905081810360008301526139ec816133c3565b9050919050565b60006020820190508181036000830152613a0c816133e6565b9050919050565b60006020820190508181036000830152613a2c81613409565b9050919050565b60006020820190508181036000830152613a4c8161344f565b9050919050565b60006020820190508181036000830152613a6c81613472565b9050919050565b60006020820190508181036000830152613a8c81613495565b9050919050565b60006020820190508181036000830152613aac816134b8565b9050919050565b60006020820190508181036000830152613acc816134db565b9050919050565b60006020820190508181036000830152613aec816134fe565b9050919050565b60006020820190508181036000830152613b0c81613521565b9050919050565b60006020820190508181036000830152613b2c81613544565b9050919050565b60006020820190508181036000830152613b4c81613567565b9050919050565b60006020820190508181036000830152613b6c8161358a565b9050919050565b60006020820190508181036000830152613b8c816135ad565b9050919050565b60006020820190508181036000830152613bac816135d0565b9050919050565b60006020820190508181036000830152613bcc816135f3565b9050919050565b60006020820190508181036000830152613bec81613616565b9050919050565b60006020820190508181036000830152613c0c81613639565b9050919050565b60006020820190508181036000830152613c2c8161365c565b9050919050565b60006020820190508181036000830152613c4c8161367f565b9050919050565b60006020820190508181036000830152613c6c816136e8565b9050919050565b6000602082019050613c88600083018461370b565b92915050565b60008083356001602003843603038112613ca757600080fd5b80840192508235915067ffffffffffffffff821115613cc557600080fd5b602083019250600182023603831315613cdd57600080fd5b509250929050565b60008083356001602003843603038112613cfe57600080fd5b80840192508235915067ffffffffffffffff821115613d1c57600080fd5b602083019250600182023603831315613d3457600080fd5b509250929050565b6000613d46613d57565b9050613d52828261401e565b919050565b6000604051905090565b600067ffffffffffffffff821115613d7c57613d7b614160565b5b613d858261418f565b9050602081019050919050565b600081519050919050565b600081519050919050565b600082825260208201905092915050565b600081905092915050565b600082825260208201905092915050565b600081905092915050565b6000613deb82613f69565b9150613df683613f69565b9250827fffffffffffffffffffffffffffffffffffffffffffffffffffffffffffffffff03821115613e2b57613e2a6140d3565b5b828201905092915050565b6000613e4182613f69565b9150613e4c83613f69565b925082613e5c57613e5b614102565b5b828204905092915050565b6000613e7282613f69565b9150613e7d83613f69565b9250817fffffffffffffffffffffffffffffffffffffffffffffffffffffffffffffffff0483118215151615613eb657613eb56140d3565b5b828202905092915050565b6000613ecc82613f69565b9150613ed783613f69565b925082821015613eea57613ee96140d3565b5b828203905092915050565b6000613f0082613f49565b9050919050565b60008115159050919050565b6000819050919050565b60007fffffffff0000000000000000000000000000000000000000000000000000000082169050919050565b600073ffffffffffffffffffffffffffffffffffffffff82169050919050565b6000819050919050565b600060ff82169050919050565b82818337600083830152505050565b60005b83811015613fad578082015181840152602081019050613f92565b83811115613fbc576000848401525b50505050565b6000613fcd82613f69565b91506000821415613fe157613fe06140d3565b5b600182039050919050565b6000600282049050600182168061400457607f821691505b6020821081141561401857614017614131565b5b50919050565b6140278261418f565b810181811067ffffffffffffffff8211171561404657614045614160565b5b80604052505050565b600061405a82613f69565b91507fffffffffffffffffffffffffffffffffffffffffffffffffffffffffffffffff82141561408d5761408c6140d3565b5b600182019050919050565b6000819050919050565b60006140ad82613f69565b91506140b883613f69565b9250826140c8576140c7614102565b5b828206905092915050565b7f4e487b7100000000000000000000000000000000000000000000000000000000600052601160045260246000fd5b7f4e487b7100000000000000000000000000000000000000000000000000000000600052601260045260246000fd5b7f4e487b7100000000000000000000000000000000000000000000000000000000600052602260045260246000fd5b7f4e487b7100000000000000000000000000000000000000000000000000000000600052604160045260246000fd5b6000601f19601f8301169050919050565b7f45434453413a20696e76616c6964207369676e61747572650000000000000000600082015250565b7f537472696e67733a20686578206c656e67746820696e73756666696369656e74600082015250565b7f45434453413a20696e76616c6964207369676e6174757265206c656e67746800600082015250565b7f4552433732313a207472616e7366657220746f206e6f6e20455243373231526560008201527f63656976657220696d706c656d656e7465720000000000000000000000000000602082015250565b7f4552433732313a207472616e736665722066726f6d20696e636f72726563742060008201527f6f776e6572000000000000000000000000000000000000000000000000000000602082015250565b7f4552433732313a20746f6b656e20616c7265616479206d696e74656400000000600082015250565b7f1901000000000000000000000000000000000000000000000000000000000000600082015250565b7f4552433732313a207472616e7366657220746f20746865207a65726f2061646460008201527f7265737300000000000000000000000000000000000000000000000000000000602082015250565b7f4552433732313a20617070726f766520746f2063616c6c657200000000000000600082015250565b7f45434453413a20696e76616c6964207369676e6174757265202773272076616c60008201527f7565000000000000000000000000000000000000000000000000000000000000602082015250565b7f4552433732313a206f70657261746f7220717565727920666f72206e6f6e657860008201527f697374656e7420746f6b656e0000000000000000000000000000000000000000602082015250565b7f4552433732313a20617070726f76652063616c6c6572206973206e6f74206f7760008201527f6e6572206e6f7220617070726f76656420666f7220616c6c0000000000000000602082015250565b7f4552433732313a2062616c616e636520717565727920666f7220746865207a6560008201527f726f206164647265737300000000000000000000000000000000000000000000602082015250565b7f4552433732313a206f776e657220717565727920666f72206e6f6e657869737460008201527f656e7420746f6b656e0000000000000000000000000000000000000000000000602082015250565b7f45524337323155524953746f726167653a2055524920736574206f66206e6f6e60008201527f6578697374656e7420746f6b656e000000000000000000000000000000000000602082015250565b7f45434453413a20696e76616c6964207369676e6174757265202776272076616c60008201527f7565000000000000000000000000000000000000000000000000000000000000602082015250565b7f496e73756666696369656e742066756e647320746f2072656465656d00000000600082015250565b7f4552433732313a206d696e7420746f20746865207a65726f2061646472657373600082015250565b7f45524337323155524953746f726167653a2055524920717565727920666f722060008201527f6e6f6e6578697374656e7420746f6b656e000000000000000000000000000000602082015250565b7f4552433732313a20617070726f76656420717565727920666f72206e6f6e657860008201527f697374656e7420746f6b656e0000000000000000000000000000000000000000602082015250565b7f4552433732314d657461646174613a2055524920717565727920666f72206e6f60008201527f6e6578697374656e7420746f6b656e0000000000000000000000000000000000602082015250565b7f4f6e6c7920617574686f72697a6564206d696e746572732063616e207769746860008201527f6472617700000000000000000000000000000000000000000000000000000000602082015250565b7f4552433732313a20617070726f76616c20746f2063757272656e74206f776e6560008201527f7200000000000000000000000000000000000000000000000000000000000000602082015250565b7f4552433732313a207472616e736665722063616c6c6572206973206e6f74206f60008201527f776e6572206e6f7220617070726f766564000000000000000000000000000000602082015250565b7f416363657373436f6e74726f6c3a206163636f756e7420000000000000000000600082015250565b7f206973206d697373696e6720726f6c6520000000000000000000000000000000600082015250565b7f416363657373436f6e74726f6c3a2063616e206f6e6c792072656e6f756e636560008201527f20726f6c657320666f722073656c660000000000000000000000000000000000602082015250565b61488281613ef5565b811461488d57600080fd5b50565b61489981613f07565b81146148a457600080fd5b50565b6148b081613f13565b81146148bb57600080fd5b50565b6148c781613f1d565b81146148d257600080fd5b50565b6148de81613f69565b81146148e957600080fd5b5056fea2646970667358221220c8b48eb3252e2667defa51fd4e841f973a80e86b561b1166ff67fd2e0cd032be64736f6c63430008040033",
  "linkReferences": {},
  "deployedLinkReferences": {}
}